{
  "_format": "hh-sol-artifact-1",
  "contractName": "CrowdFund",
  "sourceName": "contracts/CrowdFund.sol",
  "abi": [
    {
      "inputs": [
        {
          "internalType": "address",
          "name": "_owner",
          "type": "address"
        },
        {
          "internalType": "string",
          "name": "_metadataURI",
          "type": "string"
        },
        {
          "internalType": "uint256",
          "name": "_goal",
          "type": "uint256"
        }
      ],
      "stateMutability": "nonpayable",
      "type": "constructor"
    },
    {
      "anonymous": false,
      "inputs": [
        {
          "indexed": true,
          "internalType": "address",
          "name": "_donor",
          "type": "address"
        },
        {
          "indexed": false,
          "internalType": "uint256",
          "name": "_value",
          "type": "uint256"
        }
      ],
      "name": "Fund",
      "type": "event"
    },
    {
      "inputs": [],
      "name": "goal",
      "outputs": [
        {
          "internalType": "uint256",
          "name": "",
          "type": "uint256"
        }
      ],
      "stateMutability": "view",
      "type": "function"
    },
    {
      "inputs": [],
      "name": "metadataURI",
      "outputs": [
        {
          "internalType": "string",
          "name": "",
          "type": "string"
        }
      ],
      "stateMutability": "view",
      "type": "function"
    },
    {
      "inputs": [],
      "name": "owner",
      "outputs": [
        {
          "internalType": "address payable",
          "name": "",
          "type": "address"
        }
      ],
      "stateMutability": "view",
      "type": "function"
    },
    {
      "stateMutability": "payable",
      "type": "receive"
    }
  ],
  "bytecode": "0x60806040523480156200001157600080fd5b50604051620009053803806200090583398181016040528101906200003791906200038d565b826000806101000a81548173ffffffffffffffffffffffffffffffffffffffff021916908373ffffffffffffffffffffffffffffffffffffffff16021790555081600190805190602001906200008f929190620000a0565b50806002819055505050506200046d565b828054620000ae9062000437565b90600052602060002090601f016020900481019282620000d257600085556200011e565b82601f10620000ed57805160ff19168380011785556200011e565b828001600101855582156200011e579182015b828111156200011d57825182559160200191906001019062000100565b5b5090506200012d919062000131565b5090565b5b808211156200014c57600081600090555060010162000132565b5090565b6000604051905090565b600080fd5b600080fd5b600073ffffffffffffffffffffffffffffffffffffffff82169050919050565b6000620001918262000164565b9050919050565b620001a38162000184565b8114620001af57600080fd5b50565b600081519050620001c38162000198565b92915050565b600080fd5b600080fd5b6000601f19601f8301169050919050565b7f4e487b7100000000000000000000000000000000000000000000000000000000600052604160045260246000fd5b6200021e82620001d3565b810181811067ffffffffffffffff8211171562000240576200023f620001e4565b5b80604052505050565b60006200025562000150565b905062000263828262000213565b919050565b600067ffffffffffffffff821115620002865762000285620001e4565b5b6200029182620001d3565b9050602081019050919050565b60005b83811015620002be578082015181840152602081019050620002a1565b83811115620002ce576000848401525b50505050565b6000620002eb620002e58462000268565b62000249565b9050828152602081018484840111156200030a5762000309620001ce565b5b620003178482856200029e565b509392505050565b600082601f830112620003375762000336620001c9565b5b815162000349848260208601620002d4565b91505092915050565b6000819050919050565b620003678162000352565b81146200037357600080fd5b50565b60008151905062000387816200035c565b92915050565b600080600060608486031215620003a957620003a86200015a565b5b6000620003b986828701620001b2565b935050602084015167ffffffffffffffff811115620003dd57620003dc6200015f565b5b620003eb868287016200031f565b9250506040620003fe8682870162000376565b9150509250925092565b7f4e487b7100000000000000000000000000000000000000000000000000000000600052602260045260246000fd5b600060028204905060018216806200045057607f821691505b6020821081141562000467576200046662000408565b5b50919050565b610488806200047d6000396000f3fe6080604052600436106100385760003560e01c806303ee438c146100e857806340193883146101135780638da5cb5b1461013e576100e3565b366100e35734600360003373ffffffffffffffffffffffffffffffffffffffff1673ffffffffffffffffffffffffffffffffffffffff168152602001908152602001600020600082825461008c919061025a565b925050819055503373ffffffffffffffffffffffffffffffffffffffff167fda8220a878ff7a89474ccffdaa31ea1ed1ffbb0207d5051afccc4fbaf81f9bcd346040516100d991906102bf565b60405180910390a2005b600080fd5b3480156100f457600080fd5b506100fd610169565b60405161010a9190610373565b60405180910390f35b34801561011f57600080fd5b506101286101f7565b60405161013591906102bf565b60405180910390f35b34801561014a57600080fd5b506101536101fd565b60405161016091906103d6565b60405180910390f35b6001805461017690610420565b80601f01602080910402602001604051908101604052809291908181526020018280546101a290610420565b80156101ef5780601f106101c4576101008083540402835291602001916101ef565b820191906000526020600020905b8154815290600101906020018083116101d257829003601f168201915b505050505081565b60025481565b60008054906101000a900473ffffffffffffffffffffffffffffffffffffffff1681565b6000819050919050565b7f4e487b7100000000000000000000000000000000000000000000000000000000600052601160045260246000fd5b600061026582610221565b915061027083610221565b9250827fffffffffffffffffffffffffffffffffffffffffffffffffffffffffffffffff038211156102a5576102a461022b565b5b828201905092915050565b6102b981610221565b82525050565b60006020820190506102d460008301846102b0565b92915050565b600081519050919050565b600082825260208201905092915050565b60005b838110156103145780820151818401526020810190506102f9565b83811115610323576000848401525b50505050565b6000601f19601f8301169050919050565b6000610345826102da565b61034f81856102e5565b935061035f8185602086016102f6565b61036881610329565b840191505092915050565b6000602082019050818103600083015261038d818461033a565b905092915050565b600073ffffffffffffffffffffffffffffffffffffffff82169050919050565b60006103c082610395565b9050919050565b6103d0816103b5565b82525050565b60006020820190506103eb60008301846103c7565b92915050565b7f4e487b7100000000000000000000000000000000000000000000000000000000600052602260045260246000fd5b6000600282049050600182168061043857607f821691505b6020821081141561044c5761044b6103f1565b5b5091905056fea26469706673582212202d3b5e94471e27eec1c35842c0d8fbdd00d5d98836048e4735879949d4aaa9d864736f6c63430008090033",
  "linkReferences": {},
  "deployedLinkReferences": {}
}