{
  "_format": "hh-sol-artifact-1",
  "contractName": "CrowdFund",
  "sourceName": "contracts/CrowdFund.sol",
  "abi": [
    {
      "inputs": [
        {
          "internalType": "address",
          "name": "_owner",
          "type": "address"
        },
        {
          "internalType": "string",
          "name": "_metadataURI",
          "type": "string"
        },
        {
          "internalType": "uint256",
          "name": "_goal",
          "type": "uint256"
        },
        {
          "internalType": "string",
          "name": "_tag",
          "type": "string"
        }
      ],
      "stateMutability": "nonpayable",
      "type": "constructor"
    },
    {
      "anonymous": false,
      "inputs": [
        {
          "indexed": true,
          "internalType": "address",
          "name": "_donor",
          "type": "address"
        },
        {
          "indexed": false,
          "internalType": "uint256",
          "name": "value",
          "type": "uint256"
        },
        {
          "indexed": false,
          "internalType": "uint256",
          "name": "balance",
          "type": "uint256"
        }
      ],
      "name": "Fund",
      "type": "event"
    },
    {
      "inputs": [],
      "name": "cancelFund",
      "outputs": [],
      "stateMutability": "payable",
      "type": "function"
    },
    {
      "inputs": [],
      "name": "donationCount",
      "outputs": [
        {
          "internalType": "uint256",
          "name": "",
          "type": "uint256"
        }
      ],
      "stateMutability": "view",
      "type": "function"
    },
    {
      "inputs": [],
      "name": "goal",
      "outputs": [
        {
          "internalType": "uint256",
          "name": "",
          "type": "uint256"
        }
      ],
      "stateMutability": "view",
      "type": "function"
    },
    {
      "inputs": [],
      "name": "goalReached",
      "outputs": [
        {
          "internalType": "bool",
          "name": "",
          "type": "bool"
        }
      ],
      "stateMutability": "view",
      "type": "function"
    },
    {
      "inputs": [],
      "name": "isActive",
      "outputs": [
        {
          "internalType": "bool",
          "name": "",
          "type": "bool"
        }
      ],
      "stateMutability": "view",
      "type": "function"
    },
    {
      "inputs": [],
      "name": "metadataURI",
      "outputs": [
        {
          "internalType": "string",
          "name": "",
          "type": "string"
        }
      ],
      "stateMutability": "view",
      "type": "function"
    },
    {
      "inputs": [],
      "name": "owner",
      "outputs": [
        {
          "internalType": "address payable",
          "name": "",
          "type": "address"
        }
      ],
      "stateMutability": "view",
      "type": "function"
    },
    {
      "inputs": [],
      "name": "tag",
      "outputs": [
        {
          "internalType": "string",
          "name": "",
          "type": "string"
        }
      ],
      "stateMutability": "view",
      "type": "function"
    },
    {
      "inputs": [
        {
          "internalType": "address",
          "name": "",
          "type": "address"
        }
      ],
      "name": "userFunds",
      "outputs": [
        {
          "internalType": "uint256",
          "name": "",
          "type": "uint256"
        }
      ],
      "stateMutability": "view",
      "type": "function"
    },
    {
      "inputs": [],
      "name": "withdraw",
      "outputs": [],
      "stateMutability": "payable",
      "type": "function"
    },
    {
      "stateMutability": "payable",
      "type": "receive"
    }
  ],
  "bytecode": "0x60806040526001600360006101000a81548160ff0219169083151502179055506000600360016101000a81548160ff0219169083151502179055503480156200004757600080fd5b5060405162000ecf38038062000ecf83398181016040528101906200006d9190620003dd565b836000806101000a81548173ffffffffffffffffffffffffffffffffffffffff021916908373ffffffffffffffffffffffffffffffffffffffff1602179055508260019080519060200190620000c5929190620000f0565b50816002819055508060049080519060200190620000e5929190620000f0565b5050505050620004f2565b828054620000fe90620004bc565b90600052602060002090601f0160209004810192826200012257600085556200016e565b82601f106200013d57805160ff19168380011785556200016e565b828001600101855582156200016e579182015b828111156200016d57825182559160200191906001019062000150565b5b5090506200017d919062000181565b5090565b5b808211156200019c57600081600090555060010162000182565b5090565b6000604051905090565b600080fd5b600080fd5b600073ffffffffffffffffffffffffffffffffffffffff82169050919050565b6000620001e182620001b4565b9050919050565b620001f381620001d4565b8114620001ff57600080fd5b50565b6000815190506200021381620001e8565b92915050565b600080fd5b600080fd5b6000601f19601f8301169050919050565b7f4e487b7100000000000000000000000000000000000000000000000000000000600052604160045260246000fd5b6200026e8262000223565b810181811067ffffffffffffffff8211171562000290576200028f62000234565b5b80604052505050565b6000620002a5620001a0565b9050620002b3828262000263565b919050565b600067ffffffffffffffff821115620002d657620002d562000234565b5b620002e18262000223565b9050602081019050919050565b60005b838110156200030e578082015181840152602081019050620002f1565b838111156200031e576000848401525b50505050565b60006200033b6200033584620002b8565b62000299565b9050828152602081018484840111156200035a57620003596200021e565b5b62000367848285620002ee565b509392505050565b600082601f83011262000387576200038662000219565b5b81516200039984826020860162000324565b91505092915050565b6000819050919050565b620003b781620003a2565b8114620003c357600080fd5b50565b600081519050620003d781620003ac565b92915050565b60008060008060808587031215620003fa57620003f9620001aa565b5b60006200040a8782880162000202565b945050602085015167ffffffffffffffff8111156200042e576200042d620001af565b5b6200043c878288016200036f565b93505060406200044f87828801620003c6565b925050606085015167ffffffffffffffff811115620004735762000472620001af565b5b62000481878288016200036f565b91505092959194509250565b7f4e487b7100000000000000000000000000000000000000000000000000000000600052602260045260246000fd5b60006002820490506001821680620004d557607f821691505b60208210811415620004ec57620004eb6200048d565b5b50919050565b6109cd80620005026000396000f3fe6080604052600436106100955760003560e01c806351f910661161005957806351f91066146102685780637d3d6522146102935780638387c6e1146102be5780638da5cb5b146102fb578063e914fa1214610326576101ad565b806303ee438c146101b257806322f3e2d4146101dd5780632abfab4d146102085780633ccfd60b14610233578063401938831461023d576101ad565b366101ad57600360009054906101000a900460ff166100b357600080fd5b34600660003373ffffffffffffffffffffffffffffffffffffffff1673ffffffffffffffffffffffffffffffffffffffff16815260200190815260200160002060008282546101029190610676565b925050819055503373ffffffffffffffffffffffffffffffffffffffff167fd5321498ebef1d048889992d8457d0f50576d300db1fd93488480c1f57a6560134476040516101519291906106db565b60405180910390a260016005600082825461016c9190610676565b92505081905550670de0b6b3a76400006002546101899190610704565b47106101ab576001600360016101000a81548160ff0219169083151502179055505b005b600080fd5b3480156101be57600080fd5b506101c7610330565b6040516101d491906107f7565b60405180910390f35b3480156101e957600080fd5b506101f26103be565b6040516101ff9190610834565b60405180910390f35b34801561021457600080fd5b5061021d6103d1565b60405161022a919061084f565b60405180910390f35b61023b6103d7565b005b34801561024957600080fd5b50610252610474565b60405161025f919061084f565b60405180910390f35b34801561027457600080fd5b5061027d61047a565b60405161028a91906107f7565b60405180910390f35b34801561029f57600080fd5b506102a8610508565b6040516102b59190610834565b60405180910390f35b3480156102ca57600080fd5b506102e560048036038101906102e091906108cd565b61051b565b6040516102f2919061084f565b60405180910390f35b34801561030757600080fd5b50610310610533565b60405161031d919061091b565b60405180910390f35b61032e610557565b005b6001805461033d90610965565b80601f016020809104026020016040519081016040528092919081815260200182805461036990610965565b80156103b65780601f1061038b576101008083540402835291602001916103b6565b820191906000526020600020905b81548152906001019060200180831161039957829003601f168201915b505050505081565b600360009054906101000a900460ff1681565b60055481565b600360009054906101000a900460ff166103f057600080fd5b60008054906101000a900473ffffffffffffffffffffffffffffffffffffffff1673ffffffffffffffffffffffffffffffffffffffff166108fc479081150290604051600060405180830381858888f19350505050158015610456573d6000803e3d6000fd5b506000600360006101000a81548160ff021916908315150217905550565b60025481565b6004805461048790610965565b80601f01602080910402602001604051908101604052809291908181526020018280546104b390610965565b80156105005780601f106104d557610100808354040283529160200191610500565b820191906000526020600020905b8154815290600101906020018083116104e357829003601f168201915b505050505081565b600360019054906101000a900460ff1681565b60066020528060005260406000206000915090505481565b60008054906101000a900473ffffffffffffffffffffffffffffffffffffffff1681565b600360009054906101000a900460ff1661057057600080fd5b3373ffffffffffffffffffffffffffffffffffffffff166108fc600660003373ffffffffffffffffffffffffffffffffffffffff1673ffffffffffffffffffffffffffffffffffffffff168152602001908152602001600020549081150290604051600060405180830381858888f193505050501580156105f5573d6000803e3d6000fd5b506000600660003373ffffffffffffffffffffffffffffffffffffffff1673ffffffffffffffffffffffffffffffffffffffff16815260200190815260200160002081905550565b6000819050919050565b7f4e487b7100000000000000000000000000000000000000000000000000000000600052601160045260246000fd5b60006106818261063d565b915061068c8361063d565b9250827fffffffffffffffffffffffffffffffffffffffffffffffffffffffffffffffff038211156106c1576106c0610647565b5b828201905092915050565b6106d58161063d565b82525050565b60006040820190506106f060008301856106cc565b6106fd60208301846106cc565b9392505050565b600061070f8261063d565b915061071a8361063d565b9250817fffffffffffffffffffffffffffffffffffffffffffffffffffffffffffffffff048311821515161561075357610752610647565b5b828202905092915050565b600081519050919050565b600082825260208201905092915050565b60005b8381101561079857808201518184015260208101905061077d565b838111156107a7576000848401525b50505050565b6000601f19601f8301169050919050565b60006107c98261075e565b6107d38185610769565b93506107e381856020860161077a565b6107ec816107ad565b840191505092915050565b6000602082019050818103600083015261081181846107be565b905092915050565b60008115159050919050565b61082e81610819565b82525050565b60006020820190506108496000830184610825565b92915050565b600060208201905061086460008301846106cc565b92915050565b600080fd5b600073ffffffffffffffffffffffffffffffffffffffff82169050919050565b600061089a8261086f565b9050919050565b6108aa8161088f565b81146108b557600080fd5b50565b6000813590506108c7816108a1565b92915050565b6000602082840312156108e3576108e261086a565b5b60006108f1848285016108b8565b91505092915050565b60006109058261086f565b9050919050565b610915816108fa565b82525050565b6000602082019050610930600083018461090c565b92915050565b7f4e487b7100000000000000000000000000000000000000000000000000000000600052602260045260246000fd5b6000600282049050600182168061097d57607f821691505b6020821081141561099157610990610936565b5b5091905056fea26469706673582212206d08506fa0baa9b5676b6768005d2e6ec89e8853217bebbb1e153f765c279cb564736f6c63430008090033",
  "linkReferences": {},
  "deployedLinkReferences": {}
}