{
  "_format": "hh-sol-artifact-1",
  "contractName": "CrowdFund",
  "sourceName": "contracts/CrowdFund.sol",
  "abi": [
    {
      "inputs": [
        {
          "internalType": "address",
          "name": "_owner",
          "type": "address"
        },
        {
          "internalType": "string",
          "name": "_metadataURI",
          "type": "string"
        },
        {
          "internalType": "uint256",
          "name": "_goal",
          "type": "uint256"
        },
        {
          "internalType": "string",
          "name": "_tag",
          "type": "string"
        }
      ],
      "stateMutability": "nonpayable",
      "type": "constructor"
    },
    {
      "anonymous": false,
      "inputs": [
        {
          "indexed": true,
          "internalType": "address",
          "name": "_donor",
          "type": "address"
        },
        {
          "indexed": false,
          "internalType": "uint256",
          "name": "value",
          "type": "uint256"
        }
      ],
      "name": "Fund",
      "type": "event"
    },
    {
      "inputs": [],
      "name": "cancelFund",
      "outputs": [],
      "stateMutability": "payable",
      "type": "function"
    },
    {
      "inputs": [],
      "name": "donationCount",
      "outputs": [
        {
          "internalType": "uint256",
          "name": "",
          "type": "uint256"
        }
      ],
      "stateMutability": "view",
      "type": "function"
    },
    {
      "inputs": [],
      "name": "goal",
      "outputs": [
        {
          "internalType": "uint256",
          "name": "",
          "type": "uint256"
        }
      ],
      "stateMutability": "view",
      "type": "function"
    },
    {
      "inputs": [],
      "name": "goalReached",
      "outputs": [
        {
          "internalType": "bool",
          "name": "",
          "type": "bool"
        }
      ],
      "stateMutability": "view",
      "type": "function"
    },
    {
      "inputs": [],
      "name": "isActive",
      "outputs": [
        {
          "internalType": "bool",
          "name": "",
          "type": "bool"
        }
      ],
      "stateMutability": "view",
      "type": "function"
    },
    {
      "inputs": [],
      "name": "metadataURI",
      "outputs": [
        {
          "internalType": "string",
          "name": "",
          "type": "string"
        }
      ],
      "stateMutability": "view",
      "type": "function"
    },
    {
      "inputs": [],
      "name": "owner",
      "outputs": [
        {
          "internalType": "address payable",
          "name": "",
          "type": "address"
        }
      ],
      "stateMutability": "view",
      "type": "function"
    },
    {
      "inputs": [],
      "name": "tag",
      "outputs": [
        {
          "internalType": "string",
          "name": "",
          "type": "string"
        }
      ],
      "stateMutability": "view",
      "type": "function"
    },
    {
      "inputs": [
        {
          "internalType": "address",
          "name": "",
          "type": "address"
        }
      ],
      "name": "userFunds",
      "outputs": [
        {
          "internalType": "uint256",
          "name": "",
          "type": "uint256"
        }
      ],
      "stateMutability": "view",
      "type": "function"
    },
    {
      "inputs": [],
      "name": "withdraw",
      "outputs": [],
      "stateMutability": "payable",
      "type": "function"
    },
    {
      "stateMutability": "payable",
      "type": "receive"
    }
  ],
  "bytecode": "0x60806040526001600360006101000a81548160ff0219169083151502179055506000600360016101000a81548160ff0219169083151502179055503480156200004757600080fd5b5060405162000e3938038062000e3983398181016040528101906200006d9190620003dd565b836000806101000a81548173ffffffffffffffffffffffffffffffffffffffff021916908373ffffffffffffffffffffffffffffffffffffffff1602179055508260019080519060200190620000c5929190620000f0565b50816002819055508060049080519060200190620000e5929190620000f0565b5050505050620004f2565b828054620000fe90620004bc565b90600052602060002090601f0160209004810192826200012257600085556200016e565b82601f106200013d57805160ff19168380011785556200016e565b828001600101855582156200016e579182015b828111156200016d57825182559160200191906001019062000150565b5b5090506200017d919062000181565b5090565b5b808211156200019c57600081600090555060010162000182565b5090565b6000604051905090565b600080fd5b600080fd5b600073ffffffffffffffffffffffffffffffffffffffff82169050919050565b6000620001e182620001b4565b9050919050565b620001f381620001d4565b8114620001ff57600080fd5b50565b6000815190506200021381620001e8565b92915050565b600080fd5b600080fd5b6000601f19601f8301169050919050565b7f4e487b7100000000000000000000000000000000000000000000000000000000600052604160045260246000fd5b6200026e8262000223565b810181811067ffffffffffffffff8211171562000290576200028f62000234565b5b80604052505050565b6000620002a5620001a0565b9050620002b3828262000263565b919050565b600067ffffffffffffffff821115620002d657620002d562000234565b5b620002e18262000223565b9050602081019050919050565b60005b838110156200030e578082015181840152602081019050620002f1565b838111156200031e576000848401525b50505050565b60006200033b6200033584620002b8565b62000299565b9050828152602081018484840111156200035a57620003596200021e565b5b62000367848285620002ee565b509392505050565b600082601f83011262000387576200038662000219565b5b81516200039984826020860162000324565b91505092915050565b6000819050919050565b620003b781620003a2565b8114620003c357600080fd5b50565b600081519050620003d781620003ac565b92915050565b60008060008060808587031215620003fa57620003f9620001aa565b5b60006200040a8782880162000202565b945050602085015167ffffffffffffffff8111156200042e576200042d620001af565b5b6200043c878288016200036f565b93505060406200044f87828801620003c6565b925050606085015167ffffffffffffffff811115620004735762000472620001af565b5b62000481878288016200036f565b91505092959194509250565b7f4e487b7100000000000000000000000000000000000000000000000000000000600052602260045260246000fd5b60006002820490506001821680620004d557607f821691505b60208210811415620004ec57620004eb6200048d565b5b50919050565b61093780620005026000396000f3fe6080604052600436106100955760003560e01c806351f910661161005957806351f910661461024d5780637d3d6522146102785780638387c6e1146102a35780638da5cb5b146102e0578063e914fa121461030b57610192565b806303ee438c1461019757806322f3e2d4146101c25780632abfab4d146101ed5780633ccfd60b14610218578063401938831461022257610192565b366101925734600660003373ffffffffffffffffffffffffffffffffffffffff1673ffffffffffffffffffffffffffffffffffffffff16815260200190815260200160002060008282546100e99190610609565b925050819055503373ffffffffffffffffffffffffffffffffffffffff167fda8220a878ff7a89474ccffdaa31ea1ed1ffbb0207d5051afccc4fbaf81f9bcd34604051610136919061066e565b60405180910390a26001600560008282546101519190610609565b92505081905550670de0b6b3a764000060025461016e9190610689565b4710610190576001600360016101000a81548160ff0219169083151502179055505b005b600080fd5b3480156101a357600080fd5b506101ac610315565b6040516101b9919061077c565b60405180910390f35b3480156101ce57600080fd5b506101d76103a3565b6040516101e491906107b9565b60405180910390f35b3480156101f957600080fd5b506102026103b6565b60405161020f919061066e565b60405180910390f35b6102206103bc565b005b34801561022e57600080fd5b50610237610420565b604051610244919061066e565b60405180910390f35b34801561025957600080fd5b50610262610426565b60405161026f919061077c565b60405180910390f35b34801561028457600080fd5b5061028d6104b4565b60405161029a91906107b9565b60405180910390f35b3480156102af57600080fd5b506102ca60048036038101906102c59190610837565b6104c7565b6040516102d7919061066e565b60405180910390f35b3480156102ec57600080fd5b506102f56104df565b6040516103029190610885565b60405180910390f35b610313610503565b005b60018054610322906108cf565b80601f016020809104026020016040519081016040528092919081815260200182805461034e906108cf565b801561039b5780601f106103705761010080835404028352916020019161039b565b820191906000526020600020905b81548152906001019060200180831161037e57829003601f168201915b505050505081565b600360009054906101000a900460ff1681565b60055481565b3073ffffffffffffffffffffffffffffffffffffffff166108fc479081150290604051600060405180830381858888f19350505050158015610402573d6000803e3d6000fd5b506000600360006101000a81548160ff021916908315150217905550565b60025481565b60048054610433906108cf565b80601f016020809104026020016040519081016040528092919081815260200182805461045f906108cf565b80156104ac5780601f10610481576101008083540402835291602001916104ac565b820191906000526020600020905b81548152906001019060200180831161048f57829003601f168201915b505050505081565b600360019054906101000a900460ff1681565b60066020528060005260406000206000915090505481565b60008054906101000a900473ffffffffffffffffffffffffffffffffffffffff1681565b3373ffffffffffffffffffffffffffffffffffffffff166108fc600660003373ffffffffffffffffffffffffffffffffffffffff1673ffffffffffffffffffffffffffffffffffffffff168152602001908152602001600020549081150290604051600060405180830381858888f19350505050158015610588573d6000803e3d6000fd5b506000600660003373ffffffffffffffffffffffffffffffffffffffff1673ffffffffffffffffffffffffffffffffffffffff16815260200190815260200160002081905550565b6000819050919050565b7f4e487b7100000000000000000000000000000000000000000000000000000000600052601160045260246000fd5b6000610614826105d0565b915061061f836105d0565b9250827fffffffffffffffffffffffffffffffffffffffffffffffffffffffffffffffff03821115610654576106536105da565b5b828201905092915050565b610668816105d0565b82525050565b6000602082019050610683600083018461065f565b92915050565b6000610694826105d0565b915061069f836105d0565b9250817fffffffffffffffffffffffffffffffffffffffffffffffffffffffffffffffff04831182151516156106d8576106d76105da565b5b828202905092915050565b600081519050919050565b600082825260208201905092915050565b60005b8381101561071d578082015181840152602081019050610702565b8381111561072c576000848401525b50505050565b6000601f19601f8301169050919050565b600061074e826106e3565b61075881856106ee565b93506107688185602086016106ff565b61077181610732565b840191505092915050565b600060208201905081810360008301526107968184610743565b905092915050565b60008115159050919050565b6107b38161079e565b82525050565b60006020820190506107ce60008301846107aa565b92915050565b600080fd5b600073ffffffffffffffffffffffffffffffffffffffff82169050919050565b6000610804826107d9565b9050919050565b610814816107f9565b811461081f57600080fd5b50565b6000813590506108318161080b565b92915050565b60006020828403121561084d5761084c6107d4565b5b600061085b84828501610822565b91505092915050565b600061086f826107d9565b9050919050565b61087f81610864565b82525050565b600060208201905061089a6000830184610876565b92915050565b7f4e487b7100000000000000000000000000000000000000000000000000000000600052602260045260246000fd5b600060028204905060018216806108e757607f821691505b602082108114156108fb576108fa6108a0565b5b5091905056fea26469706673582212200b120f768262f566db112bd545f9aa40bed3a23558ab27698bdd31be07d32d7764736f6c63430008090033",
  "linkReferences": {},
  "deployedLinkReferences": {}
}