{
  "_format": "hh-sol-artifact-1",
  "contractName": "CrowdFund",
  "sourceName": "contracts/CrowdFund.sol",
  "abi": [
    {
      "inputs": [
        {
          "internalType": "address",
          "name": "_owner",
          "type": "address"
        },
        {
          "internalType": "string",
          "name": "_metadataURI",
          "type": "string"
        },
        {
          "internalType": "uint256",
          "name": "_goal",
          "type": "uint256"
        },
        {
          "internalType": "string",
          "name": "_tag",
          "type": "string"
        }
      ],
      "stateMutability": "nonpayable",
      "type": "constructor"
    },
    {
      "anonymous": false,
      "inputs": [
        {
          "indexed": true,
          "internalType": "address",
          "name": "_donor",
          "type": "address"
        },
        {
          "indexed": false,
          "internalType": "uint256",
          "name": "value",
          "type": "uint256"
        }
      ],
      "name": "Fund",
      "type": "event"
    },
    {
      "inputs": [],
      "name": "donationCount",
      "outputs": [
        {
          "internalType": "uint256",
          "name": "",
          "type": "uint256"
        }
      ],
      "stateMutability": "view",
      "type": "function"
    },
    {
      "inputs": [],
      "name": "goal",
      "outputs": [
        {
          "internalType": "uint256",
          "name": "",
          "type": "uint256"
        }
      ],
      "stateMutability": "view",
      "type": "function"
    },
    {
      "inputs": [],
      "name": "goalReached",
      "outputs": [
        {
          "internalType": "bool",
          "name": "",
          "type": "bool"
        }
      ],
      "stateMutability": "view",
      "type": "function"
    },
    {
      "inputs": [],
      "name": "isActive",
      "outputs": [
        {
          "internalType": "bool",
          "name": "",
          "type": "bool"
        }
      ],
      "stateMutability": "view",
      "type": "function"
    },
    {
      "inputs": [],
      "name": "metadataURI",
      "outputs": [
        {
          "internalType": "string",
          "name": "",
          "type": "string"
        }
      ],
      "stateMutability": "view",
      "type": "function"
    },
    {
      "inputs": [],
      "name": "owner",
      "outputs": [
        {
          "internalType": "address payable",
          "name": "",
          "type": "address"
        }
      ],
      "stateMutability": "view",
      "type": "function"
    },
    {
      "inputs": [],
      "name": "tag",
      "outputs": [
        {
          "internalType": "string",
          "name": "",
          "type": "string"
        }
      ],
      "stateMutability": "view",
      "type": "function"
    },
    {
      "inputs": [
        {
          "internalType": "address",
          "name": "",
          "type": "address"
        }
      ],
      "name": "userFunds",
      "outputs": [
        {
          "internalType": "uint256",
          "name": "",
          "type": "uint256"
        }
      ],
      "stateMutability": "view",
      "type": "function"
    },
    {
      "inputs": [
        {
          "internalType": "uint256",
          "name": "_value",
          "type": "uint256"
        }
      ],
      "name": "withdraw",
      "outputs": [],
      "stateMutability": "payable",
      "type": "function"
    },
    {
      "stateMutability": "payable",
      "type": "receive"
    }
  ],
  "bytecode": "0x60806040526001600360006101000a81548160ff0219169083151502179055506000600360016101000a81548160ff0219169083151502179055503480156200004757600080fd5b5060405162000f1138038062000f1183398181016040528101906200006d9190620003dd565b836000806101000a81548173ffffffffffffffffffffffffffffffffffffffff021916908373ffffffffffffffffffffffffffffffffffffffff1602179055508260019080519060200190620000c5929190620000f0565b50816002819055508060049080519060200190620000e5929190620000f0565b5050505050620004f2565b828054620000fe90620004bc565b90600052602060002090601f0160209004810192826200012257600085556200016e565b82601f106200013d57805160ff19168380011785556200016e565b828001600101855582156200016e579182015b828111156200016d57825182559160200191906001019062000150565b5b5090506200017d919062000181565b5090565b5b808211156200019c57600081600090555060010162000182565b5090565b6000604051905090565b600080fd5b600080fd5b600073ffffffffffffffffffffffffffffffffffffffff82169050919050565b6000620001e182620001b4565b9050919050565b620001f381620001d4565b8114620001ff57600080fd5b50565b6000815190506200021381620001e8565b92915050565b600080fd5b600080fd5b6000601f19601f8301169050919050565b7f4e487b7100000000000000000000000000000000000000000000000000000000600052604160045260246000fd5b6200026e8262000223565b810181811067ffffffffffffffff8211171562000290576200028f62000234565b5b80604052505050565b6000620002a5620001a0565b9050620002b3828262000263565b919050565b600067ffffffffffffffff821115620002d657620002d562000234565b5b620002e18262000223565b9050602081019050919050565b60005b838110156200030e578082015181840152602081019050620002f1565b838111156200031e576000848401525b50505050565b60006200033b6200033584620002b8565b62000299565b9050828152602081018484840111156200035a57620003596200021e565b5b62000367848285620002ee565b509392505050565b600082601f83011262000387576200038662000219565b5b81516200039984826020860162000324565b91505092915050565b6000819050919050565b620003b781620003a2565b8114620003c357600080fd5b50565b600081519050620003d781620003ac565b92915050565b60008060008060808587031215620003fa57620003f9620001aa565b5b60006200040a8782880162000202565b945050602085015167ffffffffffffffff8111156200042e576200042d620001af565b5b6200043c878288016200036f565b93505060406200044f87828801620003c6565b925050606085015167ffffffffffffffff811115620004735762000472620001af565b5b62000481878288016200036f565b91505092959194509250565b7f4e487b7100000000000000000000000000000000000000000000000000000000600052602260045260246000fd5b60006002820490506001821680620004d557607f821691505b60208210811415620004ec57620004eb6200048d565b5b50919050565b610a0f80620005026000396000f3fe60806040526004361061008a5760003560e01c80634019388311610059578063401938831461022957806351f91066146102545780637d3d65221461027f5780638387c6e1146102aa5780638da5cb5b146102e757610187565b806303ee438c1461018c57806322f3e2d4146101b75780632abfab4d146101e25780632e1a7d4d1461020d57610187565b366101875734600660003373ffffffffffffffffffffffffffffffffffffffff1673ffffffffffffffffffffffffffffffffffffffff16815260200190815260200160002060008282546100de91906105d6565b925050819055503373ffffffffffffffffffffffffffffffffffffffff167fda8220a878ff7a89474ccffdaa31ea1ed1ffbb0207d5051afccc4fbaf81f9bcd3460405161012b919061063b565b60405180910390a260016005600082825461014691906105d6565b92505081905550670de0b6b3a76400006002546101639190610656565b4710610185576001600360016101000a81548160ff0219169083151502179055505b005b600080fd5b34801561019857600080fd5b506101a1610312565b6040516101ae9190610749565b60405180910390f35b3480156101c357600080fd5b506101cc6103a0565b6040516101d99190610786565b60405180910390f35b3480156101ee57600080fd5b506101f76103b3565b604051610204919061063b565b60405180910390f35b610227600480360381019061022291906107d2565b6103b9565b005b34801561023557600080fd5b5061023e6104ba565b60405161024b919061063b565b60405180910390f35b34801561026057600080fd5b506102696104c0565b6040516102769190610749565b60405180910390f35b34801561028b57600080fd5b5061029461054e565b6040516102a19190610786565b60405180910390f35b3480156102b657600080fd5b506102d160048036038101906102cc919061085d565b610561565b6040516102de919061063b565b60405180910390f35b3480156102f357600080fd5b506102fc610579565b60405161030991906108ab565b60405180910390f35b6001805461031f906108f5565b80601f016020809104026020016040519081016040528092919081815260200182805461034b906108f5565b80156103985780601f1061036d57610100808354040283529160200191610398565b820191906000526020600020905b81548152906001019060200180831161037b57829003601f168201915b505050505081565b600360009054906101000a900460ff1681565b60055481565b60008060008054906101000a900473ffffffffffffffffffffffffffffffffffffffff1673ffffffffffffffffffffffffffffffffffffffff16670de0b6b3a7640000846104079190610656565b60405161041390610958565b60006040518083038185875af1925050503d8060008114610450576040519150601f19603f3d011682016040523d82523d6000602084013e610455565b606091505b50915091508161049a576040517f08c379a0000000000000000000000000000000000000000000000000000000008152600401610491906109b9565b60405180910390fd5b6000600360006101000a81548160ff021916908315150217905550505050565b60025481565b600480546104cd906108f5565b80601f01602080910402602001604051908101604052809291908181526020018280546104f9906108f5565b80156105465780601f1061051b57610100808354040283529160200191610546565b820191906000526020600020905b81548152906001019060200180831161052957829003601f168201915b505050505081565b600360019054906101000a900460ff1681565b60066020528060005260406000206000915090505481565b60008054906101000a900473ffffffffffffffffffffffffffffffffffffffff1681565b6000819050919050565b7f4e487b7100000000000000000000000000000000000000000000000000000000600052601160045260246000fd5b60006105e18261059d565b91506105ec8361059d565b9250827fffffffffffffffffffffffffffffffffffffffffffffffffffffffffffffffff03821115610621576106206105a7565b5b828201905092915050565b6106358161059d565b82525050565b6000602082019050610650600083018461062c565b92915050565b60006106618261059d565b915061066c8361059d565b9250817fffffffffffffffffffffffffffffffffffffffffffffffffffffffffffffffff04831182151516156106a5576106a46105a7565b5b828202905092915050565b600081519050919050565b600082825260208201905092915050565b60005b838110156106ea5780820151818401526020810190506106cf565b838111156106f9576000848401525b50505050565b6000601f19601f8301169050919050565b600061071b826106b0565b61072581856106bb565b93506107358185602086016106cc565b61073e816106ff565b840191505092915050565b600060208201905081810360008301526107638184610710565b905092915050565b60008115159050919050565b6107808161076b565b82525050565b600060208201905061079b6000830184610777565b92915050565b600080fd5b6107af8161059d565b81146107ba57600080fd5b50565b6000813590506107cc816107a6565b92915050565b6000602082840312156107e8576107e76107a1565b5b60006107f6848285016107bd565b91505092915050565b600073ffffffffffffffffffffffffffffffffffffffff82169050919050565b600061082a826107ff565b9050919050565b61083a8161081f565b811461084557600080fd5b50565b60008135905061085781610831565b92915050565b600060208284031215610873576108726107a1565b5b600061088184828501610848565b91505092915050565b6000610895826107ff565b9050919050565b6108a58161088a565b82525050565b60006020820190506108c0600083018461089c565b92915050565b7f4e487b7100000000000000000000000000000000000000000000000000000000600052602260045260246000fd5b6000600282049050600182168061090d57607f821691505b60208210811415610921576109206108c6565b5b50919050565b600081905092915050565b50565b6000610942600083610927565b915061094d82610932565b600082019050919050565b600061096382610935565b9150819050919050565b7f4572726f722073656e64696e67206574682e0000000000000000000000000000600082015250565b60006109a36012836106bb565b91506109ae8261096d565b602082019050919050565b600060208201905081810360008301526109d281610996565b905091905056fea2646970667358221220407a0eabce457855708cfc4977999e32553ca2ad44c566c6f72ec7a817e2360564736f6c63430008090033",
  "linkReferences": {},
  "deployedLinkReferences": {}
}