{
  "_format": "hh-sol-artifact-1",
  "contractName": "CrowdFundFactory",
  "sourceName": "contracts/CrowdFundFactory.sol",
  "abi": [
    {
      "anonymous": false,
      "inputs": [
        {
          "indexed": true,
          "internalType": "address",
          "name": "_owner",
          "type": "address"
        },
        {
          "indexed": false,
          "internalType": "address",
          "name": "_fundMe",
          "type": "address"
        },
        {
          "indexed": true,
          "internalType": "bytes32",
          "name": "_tag",
          "type": "bytes32"
        }
      ],
      "name": "CrowdFundPublished",
      "type": "event"
    },
    {
      "inputs": [
        {
          "internalType": "string",
          "name": "_metadataURI",
          "type": "string"
        },
        {
          "internalType": "uint256",
          "name": "_goal",
          "type": "uint256"
        },
        {
          "internalType": "bytes32",
          "name": "_tag",
          "type": "bytes32"
        }
      ],
      "name": "createFundMeContract",
      "outputs": [],
      "stateMutability": "nonpayable",
      "type": "function"
    }
  ],
  "bytecode": "0x608060405234801561001057600080fd5b50611388806100206000396000f3fe60806040523480156200001157600080fd5b50600436106200002e5760003560e01c8063444bc36e1462000033575b600080fd5b6200005160048036038101906200004b9190620002e7565b62000053565b005b6000338484846040516200006790620000ed565b6200007694939291906200045c565b604051809103906000f08015801562000093573d6000803e3d6000fd5b509050813373ffffffffffffffffffffffffffffffffffffffff167fbdaa931a225e4bf8095c1349a895e0d425491a640c026d602078d7e3a40ddd1b83604051620000df9190620004b0565b60405180910390a350505050565b610e8580620004ce83390190565b6000604051905090565b600080fd5b600080fd5b600080fd5b600080fd5b6000601f19601f8301169050919050565b7f4e487b7100000000000000000000000000000000000000000000000000000000600052604160045260246000fd5b620001648262000119565b810181811067ffffffffffffffff821117156200018657620001856200012a565b5b80604052505050565b60006200019b620000fb565b9050620001a9828262000159565b919050565b600067ffffffffffffffff821115620001cc57620001cb6200012a565b5b620001d78262000119565b9050602081019050919050565b82818337600083830152505050565b60006200020a6200020484620001ae565b6200018f565b90508281526020810184848401111562000229576200022862000114565b5b62000236848285620001e4565b509392505050565b600082601f8301126200025657620002556200010f565b5b813562000268848260208601620001f3565b91505092915050565b6000819050919050565b620002868162000271565b81146200029257600080fd5b50565b600081359050620002a6816200027b565b92915050565b6000819050919050565b620002c181620002ac565b8114620002cd57600080fd5b50565b600081359050620002e181620002b6565b92915050565b60008060006060848603121562000303576200030262000105565b5b600084013567ffffffffffffffff8111156200032457620003236200010a565b5b62000332868287016200023e565b9350506020620003458682870162000295565b92505060406200035886828701620002d0565b9150509250925092565b600073ffffffffffffffffffffffffffffffffffffffff82169050919050565b60006200038f8262000362565b9050919050565b620003a18162000382565b82525050565b600081519050919050565b600082825260208201905092915050565b60005b83811015620003e3578082015181840152602081019050620003c6565b83811115620003f3576000848401525b50505050565b60006200040682620003a7565b620004128185620003b2565b935062000424818560208601620003c3565b6200042f8162000119565b840191505092915050565b620004458162000271565b82525050565b6200045681620002ac565b82525050565b600060808201905062000473600083018762000396565b8181036020830152620004878186620003f9565b90506200049860408301856200043a565b620004a760608301846200044b565b95945050505050565b6000602082019050620004c7600083018462000396565b9291505056fe60806040526001600360006101000a81548160ff0219169083151502179055506000600360016101000a81548160ff0219169083151502179055503480156200004757600080fd5b5060405162000e8538038062000e8583398181016040528101906200006d919062000406565b836000806101000a81548173ffffffffffffffffffffffffffffffffffffffff021916908373ffffffffffffffffffffffffffffffffffffffff1602179055508260019080519060200190620000c5929190620000de565b50816002819055508060048190555050505050620004fc565b828054620000ec90620004c6565b90600052602060002090601f0160209004810192826200011057600085556200015c565b82601f106200012b57805160ff19168380011785556200015c565b828001600101855582156200015c579182015b828111156200015b5782518255916020019190600101906200013e565b5b5090506200016b91906200016f565b5090565b5b808211156200018a57600081600090555060010162000170565b5090565b6000604051905090565b600080fd5b600080fd5b600073ffffffffffffffffffffffffffffffffffffffff82169050919050565b6000620001cf82620001a2565b9050919050565b620001e181620001c2565b8114620001ed57600080fd5b50565b6000815190506200020181620001d6565b92915050565b600080fd5b600080fd5b6000601f19601f8301169050919050565b7f4e487b7100000000000000000000000000000000000000000000000000000000600052604160045260246000fd5b6200025c8262000211565b810181811067ffffffffffffffff821117156200027e576200027d62000222565b5b80604052505050565b6000620002936200018e565b9050620002a1828262000251565b919050565b600067ffffffffffffffff821115620002c457620002c362000222565b5b620002cf8262000211565b9050602081019050919050565b60005b83811015620002fc578082015181840152602081019050620002df565b838111156200030c576000848401525b50505050565b6000620003296200032384620002a6565b62000287565b9050828152602081018484840111156200034857620003476200020c565b5b62000355848285620002dc565b509392505050565b600082601f83011262000375576200037462000207565b5b81516200038784826020860162000312565b91505092915050565b6000819050919050565b620003a58162000390565b8114620003b157600080fd5b50565b600081519050620003c5816200039a565b92915050565b6000819050919050565b620003e081620003cb565b8114620003ec57600080fd5b50565b6000815190506200040081620003d5565b92915050565b6000806000806080858703121562000423576200042262000198565b5b60006200043387828801620001f0565b945050602085015167ffffffffffffffff8111156200045757620004566200019d565b5b62000465878288016200035d565b93505060406200047887828801620003b4565b92505060606200048b87828801620003ef565b91505092959194509250565b7f4e487b7100000000000000000000000000000000000000000000000000000000600052602260045260246000fd5b60006002820490506001821680620004df57607f821691505b60208210811415620004f657620004f562000497565b5b50919050565b610979806200050c6000396000f3fe6080604052600436106100955760003560e01c806351f910661161005957806351f91066146102685780637d3d6522146102935780638387c6e1146102be5780638da5cb5b146102fb578063e914fa1214610326576101ad565b806303ee438c146101b257806322f3e2d4146101dd5780632abfab4d146102085780633ccfd60b14610233578063401938831461023d576101ad565b366101ad57600360009054906101000a900460ff166100b357600080fd5b34600660003373ffffffffffffffffffffffffffffffffffffffff1673ffffffffffffffffffffffffffffffffffffffff168152602001908152602001600020600082825461010291906105ee565b925050819055503373ffffffffffffffffffffffffffffffffffffffff167fd5321498ebef1d048889992d8457d0f50576d300db1fd93488480c1f57a656013447604051610151929190610653565b60405180910390a260016005600082825461016c91906105ee565b92505081905550670de0b6b3a7640000600254610189919061067c565b47106101ab576001600360016101000a81548160ff0219169083151502179055505b005b600080fd5b3480156101be57600080fd5b506101c7610330565b6040516101d4919061076f565b60405180910390f35b3480156101e957600080fd5b506101f26103be565b6040516101ff91906107ac565b60405180910390f35b34801561021457600080fd5b5061021d6103d1565b60405161022a91906107c7565b60405180910390f35b61023b6103d7565b005b34801561024957600080fd5b50610252610474565b60405161025f91906107c7565b60405180910390f35b34801561027457600080fd5b5061027d61047a565b60405161028a91906107fb565b60405180910390f35b34801561029f57600080fd5b506102a8610480565b6040516102b591906107ac565b60405180910390f35b3480156102ca57600080fd5b506102e560048036038101906102e09190610879565b610493565b6040516102f291906107c7565b60405180910390f35b34801561030757600080fd5b506103106104ab565b60405161031d91906108c7565b60405180910390f35b61032e6104cf565b005b6001805461033d90610911565b80601f016020809104026020016040519081016040528092919081815260200182805461036990610911565b80156103b65780601f1061038b576101008083540402835291602001916103b6565b820191906000526020600020905b81548152906001019060200180831161039957829003601f168201915b505050505081565b600360009054906101000a900460ff1681565b60055481565b600360009054906101000a900460ff166103f057600080fd5b60008054906101000a900473ffffffffffffffffffffffffffffffffffffffff1673ffffffffffffffffffffffffffffffffffffffff166108fc479081150290604051600060405180830381858888f19350505050158015610456573d6000803e3d6000fd5b506000600360006101000a81548160ff021916908315150217905550565b60025481565b60045481565b600360019054906101000a900460ff1681565b60066020528060005260406000206000915090505481565b60008054906101000a900473ffffffffffffffffffffffffffffffffffffffff1681565b600360009054906101000a900460ff166104e857600080fd5b3373ffffffffffffffffffffffffffffffffffffffff166108fc600660003373ffffffffffffffffffffffffffffffffffffffff1673ffffffffffffffffffffffffffffffffffffffff168152602001908152602001600020549081150290604051600060405180830381858888f1935050505015801561056d573d6000803e3d6000fd5b506000600660003373ffffffffffffffffffffffffffffffffffffffff1673ffffffffffffffffffffffffffffffffffffffff16815260200190815260200160002081905550565b6000819050919050565b7f4e487b7100000000000000000000000000000000000000000000000000000000600052601160045260246000fd5b60006105f9826105b5565b9150610604836105b5565b9250827fffffffffffffffffffffffffffffffffffffffffffffffffffffffffffffffff03821115610639576106386105bf565b5b828201905092915050565b61064d816105b5565b82525050565b60006040820190506106686000830185610644565b6106756020830184610644565b9392505050565b6000610687826105b5565b9150610692836105b5565b9250817fffffffffffffffffffffffffffffffffffffffffffffffffffffffffffffffff04831182151516156106cb576106ca6105bf565b5b828202905092915050565b600081519050919050565b600082825260208201905092915050565b60005b838110156107105780820151818401526020810190506106f5565b8381111561071f576000848401525b50505050565b6000601f19601f8301169050919050565b6000610741826106d6565b61074b81856106e1565b935061075b8185602086016106f2565b61076481610725565b840191505092915050565b600060208201905081810360008301526107898184610736565b905092915050565b60008115159050919050565b6107a681610791565b82525050565b60006020820190506107c1600083018461079d565b92915050565b60006020820190506107dc6000830184610644565b92915050565b6000819050919050565b6107f5816107e2565b82525050565b600060208201905061081060008301846107ec565b92915050565b600080fd5b600073ffffffffffffffffffffffffffffffffffffffff82169050919050565b60006108468261081b565b9050919050565b6108568161083b565b811461086157600080fd5b50565b6000813590506108738161084d565b92915050565b60006020828403121561088f5761088e610816565b5b600061089d84828501610864565b91505092915050565b60006108b18261081b565b9050919050565b6108c1816108a6565b82525050565b60006020820190506108dc60008301846108b8565b92915050565b7f4e487b7100000000000000000000000000000000000000000000000000000000600052602260045260246000fd5b6000600282049050600182168061092957607f821691505b6020821081141561093d5761093c6108e2565b5b5091905056fea2646970667358221220fd19d143f58649762beec85d9fa99e24413b87d6946affa228a7cc9f0bc5f14664736f6c63430008090033a26469706673582212203c6b7953b8794ef14469efdf62a7405107d1678798dcb72e1ccb96b96afb966764736f6c63430008090033",
  "linkReferences": {},
  "deployedLinkReferences": {}
}