{
  "_format": "hh-sol-artifact-1",
  "contractName": "CrowdFundFactory",
  "sourceName": "contracts/CrowdFundFactory.sol",
  "abi": [
    {
      "anonymous": false,
      "inputs": [
        {
          "indexed": true,
          "internalType": "address",
          "name": "_owner",
          "type": "address"
        },
        {
          "indexed": false,
          "internalType": "address",
          "name": "_fundMe",
          "type": "address"
        }
      ],
      "name": "CrowdFundPublished",
      "type": "event"
    },
    {
      "inputs": [
        {
          "internalType": "address",
          "name": "",
          "type": "address"
        },
        {
          "internalType": "uint256",
          "name": "",
          "type": "uint256"
        }
      ],
      "name": "contractOwners",
      "outputs": [
        {
          "internalType": "address",
          "name": "",
          "type": "address"
        }
      ],
      "stateMutability": "view",
      "type": "function"
    },
    {
      "inputs": [
        {
          "internalType": "string",
          "name": "_metadataURI",
          "type": "string"
        },
        {
          "internalType": "uint256",
          "name": "_goal",
          "type": "uint256"
        },
        {
          "internalType": "string",
          "name": "_tag",
          "type": "string"
        }
      ],
      "name": "createFundMeContract",
      "outputs": [],
      "stateMutability": "nonpayable",
      "type": "function"
    },
    {
      "inputs": [
        {
          "internalType": "uint256",
          "name": "",
          "type": "uint256"
        }
      ],
      "name": "fundMeArray",
      "outputs": [
        {
          "internalType": "address",
          "name": "",
          "type": "address"
        }
      ],
      "stateMutability": "view",
      "type": "function"
    },
    {
      "inputs": [],
      "name": "getFundMeContracts",
      "outputs": [
        {
          "internalType": "address[]",
          "name": "",
          "type": "address[]"
        }
      ],
      "stateMutability": "view",
      "type": "function"
    },
    {
      "inputs": [
        {
          "internalType": "address",
          "name": "_owner",
          "type": "address"
        }
      ],
      "name": "getUserContracts",
      "outputs": [
        {
          "internalType": "address[]",
          "name": "",
          "type": "address[]"
        }
      ],
      "stateMutability": "view",
      "type": "function"
    }
  ],
  "bytecode": "0x608060405234801561001057600080fd5b506118f1806100206000396000f3fe60806040523480156200001157600080fd5b50600436106200005e5760003560e01c806334c925f014620000635780636c5062d11462000099578063c05540a914620000b9578063d3a6423914620000db578063fbee9e831462000111575b600080fd5b6200008160048036038101906200007b919062000556565b62000147565b60405162000090919062000656565b60405180910390f35b620000b76004803603810190620000b1919062000817565b62000215565b005b620000c3620003b0565b604051620000d2919062000656565b60405180910390f35b620000f96004803603810190620000f39190620008b1565b62000440565b60405162000108919062000909565b60405180910390f35b6200012f600480360381019062000129919062000926565b6200048f565b6040516200013e919062000909565b60405180910390f35b60606000808373ffffffffffffffffffffffffffffffffffffffff1673ffffffffffffffffffffffffffffffffffffffff1681526020019081526020016000208054806020026020016040519081016040528092919081815260200182805480156200020957602002820191906000526020600020905b8160009054906101000a900473ffffffffffffffffffffffffffffffffffffffff1673ffffffffffffffffffffffffffffffffffffffff1681526020019060010190808311620001be575b50505050509050919050565b6000338484846040516200022990620004cf565b620002389493929190620009fc565b604051809103906000f08015801562000255573d6000803e3d6000fd5b5090506000808273ffffffffffffffffffffffffffffffffffffffff1673ffffffffffffffffffffffffffffffffffffffff168152602001908152602001600020819080600181540180825580915050600190039060005260206000200160009091909190916101000a81548173ffffffffffffffffffffffffffffffffffffffff021916908373ffffffffffffffffffffffffffffffffffffffff1602179055506001819080600181540180825580915050600190039060005260206000200160009091909190916101000a81548173ffffffffffffffffffffffffffffffffffffffff021916908373ffffffffffffffffffffffffffffffffffffffff1602179055503373ffffffffffffffffffffffffffffffffffffffff167fed1d2e7d2b8793d788edfbb1538867daa05baa36f2e973014560b2ec9518404b82604051620003a2919062000909565b60405180910390a250505050565b606060018054806020026020016040519081016040528092919081815260200182805480156200043657602002820191906000526020600020905b8160009054906101000a900473ffffffffffffffffffffffffffffffffffffffff1673ffffffffffffffffffffffffffffffffffffffff1681526020019060010190808311620003eb575b5050505050905090565b600060205281600052604060002081815481106200045d57600080fd5b906000526020600020016000915091509054906101000a900473ffffffffffffffffffffffffffffffffffffffff1681565b60018181548110620004a057600080fd5b906000526020600020016000915054906101000a900473ffffffffffffffffffffffffffffffffffffffff1681565b610e648062000a5883390190565b6000604051905090565b600080fd5b600080fd5b600073ffffffffffffffffffffffffffffffffffffffff82169050919050565b60006200051e82620004f1565b9050919050565b620005308162000511565b81146200053c57600080fd5b50565b600081359050620005508162000525565b92915050565b6000602082840312156200056f576200056e620004e7565b5b60006200057f848285016200053f565b91505092915050565b600081519050919050565b600082825260208201905092915050565b6000819050602082019050919050565b620005bf8162000511565b82525050565b6000620005d38383620005b4565b60208301905092915050565b6000602082019050919050565b6000620005f98262000588565b62000605818562000593565b93506200061283620005a4565b8060005b83811015620006495781516200062d8882620005c5565b97506200063a83620005df565b92505060018101905062000616565b5085935050505092915050565b60006020820190508181036000830152620006728184620005ec565b905092915050565b600080fd5b600080fd5b6000601f19601f8301169050919050565b7f4e487b7100000000000000000000000000000000000000000000000000000000600052604160045260246000fd5b620006cf8262000684565b810181811067ffffffffffffffff82111715620006f157620006f062000695565b5b80604052505050565b600062000706620004dd565b9050620007148282620006c4565b919050565b600067ffffffffffffffff82111562000737576200073662000695565b5b620007428262000684565b9050602081019050919050565b82818337600083830152505050565b6000620007756200076f8462000719565b620006fa565b9050828152602081018484840111156200079457620007936200067f565b5b620007a18482856200074f565b509392505050565b600082601f830112620007c157620007c06200067a565b5b8135620007d38482602086016200075e565b91505092915050565b6000819050919050565b620007f181620007dc565b8114620007fd57600080fd5b50565b6000813590506200081181620007e6565b92915050565b600080600060608486031215620008335762000832620004e7565b5b600084013567ffffffffffffffff811115620008545762000853620004ec565b5b6200086286828701620007a9565b9350506020620008758682870162000800565b925050604084013567ffffffffffffffff811115620008995762000898620004ec565b5b620008a786828701620007a9565b9150509250925092565b60008060408385031215620008cb57620008ca620004e7565b5b6000620008db858286016200053f565b9250506020620008ee8582860162000800565b9150509250929050565b620009038162000511565b82525050565b6000602082019050620009206000830184620008f8565b92915050565b6000602082840312156200093f576200093e620004e7565b5b60006200094f8482850162000800565b91505092915050565b600081519050919050565b600082825260208201905092915050565b60005b838110156200099457808201518184015260208101905062000977565b83811115620009a4576000848401525b50505050565b6000620009b78262000958565b620009c3818562000963565b9350620009d581856020860162000974565b620009e08162000684565b840191505092915050565b620009f681620007dc565b82525050565b600060808201905062000a136000830187620008f8565b818103602083015262000a278186620009aa565b905062000a386040830185620009eb565b818103606083015262000a4c8184620009aa565b90509594505050505056fe60806040526001600360006101000a81548160ff0219169083151502179055506000600360016101000a81548160ff0219169083151502179055503480156200004757600080fd5b5060405162000e6438038062000e6483398181016040528101906200006d9190620003dd565b836000806101000a81548173ffffffffffffffffffffffffffffffffffffffff021916908373ffffffffffffffffffffffffffffffffffffffff1602179055508260019080519060200190620000c5929190620000f0565b50816002819055508060049080519060200190620000e5929190620000f0565b5050505050620004f2565b828054620000fe90620004bc565b90600052602060002090601f0160209004810192826200012257600085556200016e565b82601f106200013d57805160ff19168380011785556200016e565b828001600101855582156200016e579182015b828111156200016d57825182559160200191906001019062000150565b5b5090506200017d919062000181565b5090565b5b808211156200019c57600081600090555060010162000182565b5090565b6000604051905090565b600080fd5b600080fd5b600073ffffffffffffffffffffffffffffffffffffffff82169050919050565b6000620001e182620001b4565b9050919050565b620001f381620001d4565b8114620001ff57600080fd5b50565b6000815190506200021381620001e8565b92915050565b600080fd5b600080fd5b6000601f19601f8301169050919050565b7f4e487b7100000000000000000000000000000000000000000000000000000000600052604160045260246000fd5b6200026e8262000223565b810181811067ffffffffffffffff8211171562000290576200028f62000234565b5b80604052505050565b6000620002a5620001a0565b9050620002b3828262000263565b919050565b600067ffffffffffffffff821115620002d657620002d562000234565b5b620002e18262000223565b9050602081019050919050565b60005b838110156200030e578082015181840152602081019050620002f1565b838111156200031e576000848401525b50505050565b60006200033b6200033584620002b8565b62000299565b9050828152602081018484840111156200035a57620003596200021e565b5b62000367848285620002ee565b509392505050565b600082601f83011262000387576200038662000219565b5b81516200039984826020860162000324565b91505092915050565b6000819050919050565b620003b781620003a2565b8114620003c357600080fd5b50565b600081519050620003d781620003ac565b92915050565b60008060008060808587031215620003fa57620003f9620001aa565b5b60006200040a8782880162000202565b945050602085015167ffffffffffffffff8111156200042e576200042d620001af565b5b6200043c878288016200036f565b93505060406200044f87828801620003c6565b925050606085015167ffffffffffffffff811115620004735762000472620001af565b5b62000481878288016200036f565b91505092959194509250565b7f4e487b7100000000000000000000000000000000000000000000000000000000600052602260045260246000fd5b60006002820490506001821680620004d557607f821691505b60208210811415620004ec57620004eb6200048d565b5b50919050565b61096280620005026000396000f3fe6080604052600436106100955760003560e01c806351f910661161005957806351f910661461024f5780637d3d65221461027a5780638387c6e1146102a55780638da5cb5b146102e2578063e914fa121461030d57610194565b806303ee438c1461019957806322f3e2d4146101c45780632abfab4d146101ef5780633ccfd60b1461021a578063401938831461022457610194565b366101945734600660003373ffffffffffffffffffffffffffffffffffffffff1673ffffffffffffffffffffffffffffffffffffffff16815260200190815260200160002060008282546100e9919061060b565b925050819055503373ffffffffffffffffffffffffffffffffffffffff167fd5321498ebef1d048889992d8457d0f50576d300db1fd93488480c1f57a656013447604051610138929190610670565b60405180910390a2600160056000828254610153919061060b565b92505081905550670de0b6b3a76400006002546101709190610699565b4710610192576001600360016101000a81548160ff0219169083151502179055505b005b600080fd5b3480156101a557600080fd5b506101ae610317565b6040516101bb919061078c565b60405180910390f35b3480156101d057600080fd5b506101d96103a5565b6040516101e691906107c9565b60405180910390f35b3480156101fb57600080fd5b506102046103b8565b60405161021191906107e4565b60405180910390f35b6102226103be565b005b34801561023057600080fd5b50610239610422565b60405161024691906107e4565b60405180910390f35b34801561025b57600080fd5b50610264610428565b604051610271919061078c565b60405180910390f35b34801561028657600080fd5b5061028f6104b6565b60405161029c91906107c9565b60405180910390f35b3480156102b157600080fd5b506102cc60048036038101906102c79190610862565b6104c9565b6040516102d991906107e4565b60405180910390f35b3480156102ee57600080fd5b506102f76104e1565b60405161030491906108b0565b60405180910390f35b610315610505565b005b60018054610324906108fa565b80601f0160208091040260200160405190810160405280929190818152602001828054610350906108fa565b801561039d5780601f106103725761010080835404028352916020019161039d565b820191906000526020600020905b81548152906001019060200180831161038057829003601f168201915b505050505081565b600360009054906101000a900460ff1681565b60055481565b3073ffffffffffffffffffffffffffffffffffffffff166108fc479081150290604051600060405180830381858888f19350505050158015610404573d6000803e3d6000fd5b506000600360006101000a81548160ff021916908315150217905550565b60025481565b60048054610435906108fa565b80601f0160208091040260200160405190810160405280929190818152602001828054610461906108fa565b80156104ae5780601f10610483576101008083540402835291602001916104ae565b820191906000526020600020905b81548152906001019060200180831161049157829003601f168201915b505050505081565b600360019054906101000a900460ff1681565b60066020528060005260406000206000915090505481565b60008054906101000a900473ffffffffffffffffffffffffffffffffffffffff1681565b3373ffffffffffffffffffffffffffffffffffffffff166108fc600660003373ffffffffffffffffffffffffffffffffffffffff1673ffffffffffffffffffffffffffffffffffffffff168152602001908152602001600020549081150290604051600060405180830381858888f1935050505015801561058a573d6000803e3d6000fd5b506000600660003373ffffffffffffffffffffffffffffffffffffffff1673ffffffffffffffffffffffffffffffffffffffff16815260200190815260200160002081905550565b6000819050919050565b7f4e487b7100000000000000000000000000000000000000000000000000000000600052601160045260246000fd5b6000610616826105d2565b9150610621836105d2565b9250827fffffffffffffffffffffffffffffffffffffffffffffffffffffffffffffffff03821115610656576106556105dc565b5b828201905092915050565b61066a816105d2565b82525050565b60006040820190506106856000830185610661565b6106926020830184610661565b9392505050565b60006106a4826105d2565b91506106af836105d2565b9250817fffffffffffffffffffffffffffffffffffffffffffffffffffffffffffffffff04831182151516156106e8576106e76105dc565b5b828202905092915050565b600081519050919050565b600082825260208201905092915050565b60005b8381101561072d578082015181840152602081019050610712565b8381111561073c576000848401525b50505050565b6000601f19601f8301169050919050565b600061075e826106f3565b61076881856106fe565b935061077881856020860161070f565b61078181610742565b840191505092915050565b600060208201905081810360008301526107a68184610753565b905092915050565b60008115159050919050565b6107c3816107ae565b82525050565b60006020820190506107de60008301846107ba565b92915050565b60006020820190506107f96000830184610661565b92915050565b600080fd5b600073ffffffffffffffffffffffffffffffffffffffff82169050919050565b600061082f82610804565b9050919050565b61083f81610824565b811461084a57600080fd5b50565b60008135905061085c81610836565b92915050565b600060208284031215610878576108776107ff565b5b60006108868482850161084d565b91505092915050565b600061089a82610804565b9050919050565b6108aa8161088f565b82525050565b60006020820190506108c560008301846108a1565b92915050565b7f4e487b7100000000000000000000000000000000000000000000000000000000600052602260045260246000fd5b6000600282049050600182168061091257607f821691505b60208210811415610926576109256108cb565b5b5091905056fea2646970667358221220f5bc12e4b276555b052d4c07918d0f0e9e5d5ff8d5fb74f4fe70359c63b29b6064736f6c63430008090033a26469706673582212200bb94d9f138141e6e1a58cd6e4bfed6c3716c25b05add0a8b0a7d6b3986409b364736f6c63430008090033",
  "linkReferences": {},
  "deployedLinkReferences": {}
}