{
  "_format": "hh-sol-artifact-1",
  "contractName": "CrowdFundFactory",
  "sourceName": "contracts/CrowdFundFactory.sol",
  "abi": [
    {
      "anonymous": false,
      "inputs": [
        {
          "indexed": true,
          "internalType": "address",
          "name": "_owner",
          "type": "address"
        },
        {
          "indexed": false,
          "internalType": "address",
          "name": "_fundMe",
          "type": "address"
        },
        {
          "indexed": true,
          "internalType": "bytes32",
          "name": "_tag",
          "type": "bytes32"
        }
      ],
      "name": "CrowdFundPublished",
      "type": "event"
    },
    {
      "inputs": [
        {
          "internalType": "string",
          "name": "_metadataURI",
          "type": "string"
        },
        {
          "internalType": "uint256",
          "name": "_goal",
          "type": "uint256"
        },
        {
          "internalType": "bytes32",
          "name": "_tag",
          "type": "bytes32"
        }
      ],
      "name": "createFundMeContract",
      "outputs": [],
      "stateMutability": "nonpayable",
      "type": "function"
    }
  ],
  "bytecode": "0x608060405234801561001057600080fd5b50611419806100206000396000f3fe60806040523480156200001157600080fd5b50600436106200002e5760003560e01c8063444bc36e1462000033575b600080fd5b6200005160048036038101906200004b9190620002e7565b62000053565b005b6000338484846040516200006790620000ed565b6200007694939291906200045c565b604051809103906000f08015801562000093573d6000803e3d6000fd5b509050813373ffffffffffffffffffffffffffffffffffffffff167fbdaa931a225e4bf8095c1349a895e0d425491a640c026d602078d7e3a40ddd1b83604051620000df9190620004b0565b60405180910390a350505050565b610f1680620004ce83390190565b6000604051905090565b600080fd5b600080fd5b600080fd5b600080fd5b6000601f19601f8301169050919050565b7f4e487b7100000000000000000000000000000000000000000000000000000000600052604160045260246000fd5b620001648262000119565b810181811067ffffffffffffffff821117156200018657620001856200012a565b5b80604052505050565b60006200019b620000fb565b9050620001a9828262000159565b919050565b600067ffffffffffffffff821115620001cc57620001cb6200012a565b5b620001d78262000119565b9050602081019050919050565b82818337600083830152505050565b60006200020a6200020484620001ae565b6200018f565b90508281526020810184848401111562000229576200022862000114565b5b62000236848285620001e4565b509392505050565b600082601f8301126200025657620002556200010f565b5b813562000268848260208601620001f3565b91505092915050565b6000819050919050565b620002868162000271565b81146200029257600080fd5b50565b600081359050620002a6816200027b565b92915050565b6000819050919050565b620002c181620002ac565b8114620002cd57600080fd5b50565b600081359050620002e181620002b6565b92915050565b60008060006060848603121562000303576200030262000105565b5b600084013567ffffffffffffffff8111156200032457620003236200010a565b5b62000332868287016200023e565b9350506020620003458682870162000295565b92505060406200035886828701620002d0565b9150509250925092565b600073ffffffffffffffffffffffffffffffffffffffff82169050919050565b60006200038f8262000362565b9050919050565b620003a18162000382565b82525050565b600081519050919050565b600082825260208201905092915050565b60005b83811015620003e3578082015181840152602081019050620003c6565b83811115620003f3576000848401525b50505050565b60006200040682620003a7565b620004128185620003b2565b935062000424818560208601620003c3565b6200042f8162000119565b840191505092915050565b620004458162000271565b82525050565b6200045681620002ac565b82525050565b600060808201905062000473600083018762000396565b8181036020830152620004878186620003f9565b90506200049860408301856200043a565b620004a760608301846200044b565b95945050505050565b6000602082019050620004c7600083018462000396565b9291505056fe60806040526001600360006101000a81548160ff0219169083151502179055506000600360016101000a81548160ff0219169083151502179055503480156200004757600080fd5b5060405162000f1638038062000f1683398181016040528101906200006d919062000406565b836000806101000a81548173ffffffffffffffffffffffffffffffffffffffff021916908373ffffffffffffffffffffffffffffffffffffffff1602179055508260019080519060200190620000c5929190620000de565b50816002819055508060048190555050505050620004fc565b828054620000ec90620004c6565b90600052602060002090601f0160209004810192826200011057600085556200015c565b82601f106200012b57805160ff19168380011785556200015c565b828001600101855582156200015c579182015b828111156200015b5782518255916020019190600101906200013e565b5b5090506200016b91906200016f565b5090565b5b808211156200018a57600081600090555060010162000170565b5090565b6000604051905090565b600080fd5b600080fd5b600073ffffffffffffffffffffffffffffffffffffffff82169050919050565b6000620001cf82620001a2565b9050919050565b620001e181620001c2565b8114620001ed57600080fd5b50565b6000815190506200020181620001d6565b92915050565b600080fd5b600080fd5b6000601f19601f8301169050919050565b7f4e487b7100000000000000000000000000000000000000000000000000000000600052604160045260246000fd5b6200025c8262000211565b810181811067ffffffffffffffff821117156200027e576200027d62000222565b5b80604052505050565b6000620002936200018e565b9050620002a1828262000251565b919050565b600067ffffffffffffffff821115620002c457620002c362000222565b5b620002cf8262000211565b9050602081019050919050565b60005b83811015620002fc578082015181840152602081019050620002df565b838111156200030c576000848401525b50505050565b6000620003296200032384620002a6565b62000287565b9050828152602081018484840111156200034857620003476200020c565b5b62000355848285620002dc565b509392505050565b600082601f83011262000375576200037462000207565b5b81516200038784826020860162000312565b91505092915050565b6000819050919050565b620003a58162000390565b8114620003b157600080fd5b50565b600081519050620003c5816200039a565b92915050565b6000819050919050565b620003e081620003cb565b8114620003ec57600080fd5b50565b6000815190506200040081620003d5565b92915050565b6000806000806080858703121562000423576200042262000198565b5b60006200043387828801620001f0565b945050602085015167ffffffffffffffff8111156200045757620004566200019d565b5b62000465878288016200035d565b93505060406200047887828801620003b4565b92505060606200048b87828801620003ef565b91505092959194509250565b7f4e487b7100000000000000000000000000000000000000000000000000000000600052602260045260246000fd5b60006002820490506001821680620004df57607f821691505b60208210811415620004f657620004f562000497565b5b50919050565b610a0a806200050c6000396000f3fe6080604052600436106100a05760003560e01c80634019388311610064578063401938831461028557806351f91066146102b05780637d3d6522146102db5780638387c6e1146103065780638da5cb5b14610343578063e914fa121461036e576101b8565b806303ee438c146101bd57806322f3e2d4146101e85780632abfab4d146102135780632b31838f1461023e5780633ccfd60b1461027b576101b8565b366101b857600360009054906101000a900460ff166100be57600080fd5b34600660003373ffffffffffffffffffffffffffffffffffffffff1673ffffffffffffffffffffffffffffffffffffffff168152602001908152602001600020600082825461010d919061067f565b925050819055503373ffffffffffffffffffffffffffffffffffffffff167fd5321498ebef1d048889992d8457d0f50576d300db1fd93488480c1f57a65601344760405161015c9291906106e4565b60405180910390a2600160056000828254610177919061067f565b92505081905550670de0b6b3a7640000600254610194919061070d565b47106101b6576001600360016101000a81548160ff0219169083151502179055505b005b600080fd5b3480156101c957600080fd5b506101d2610378565b6040516101df9190610800565b60405180910390f35b3480156101f457600080fd5b506101fd610406565b60405161020a919061083d565b60405180910390f35b34801561021f57600080fd5b50610228610419565b6040516102359190610858565b60405180910390f35b34801561024a57600080fd5b50610265600480360381019061026091906108d6565b61041f565b6040516102729190610858565b60405180910390f35b610283610468565b005b34801561029157600080fd5b5061029a610505565b6040516102a79190610858565b60405180910390f35b3480156102bc57600080fd5b506102c561050b565b6040516102d2919061091c565b60405180910390f35b3480156102e757600080fd5b506102f0610511565b6040516102fd919061083d565b60405180910390f35b34801561031257600080fd5b5061032d600480360381019061032891906108d6565b610524565b60405161033a9190610858565b60405180910390f35b34801561034f57600080fd5b5061035861053c565b6040516103659190610958565b60405180910390f35b610376610560565b005b60018054610385906109a2565b80601f01602080910402602001604051908101604052809291908181526020018280546103b1906109a2565b80156103fe5780601f106103d3576101008083540402835291602001916103fe565b820191906000526020600020905b8154815290600101906020018083116103e157829003601f168201915b505050505081565b600360009054906101000a900460ff1681565b60055481565b6000600660008373ffffffffffffffffffffffffffffffffffffffff1673ffffffffffffffffffffffffffffffffffffffff168152602001908152602001600020549050919050565b600360009054906101000a900460ff1661048157600080fd5b60008054906101000a900473ffffffffffffffffffffffffffffffffffffffff1673ffffffffffffffffffffffffffffffffffffffff166108fc479081150290604051600060405180830381858888f193505050501580156104e7573d6000803e3d6000fd5b506000600360006101000a81548160ff021916908315150217905550565b60025481565b60045481565b600360019054906101000a900460ff1681565b60066020528060005260406000206000915090505481565b60008054906101000a900473ffffffffffffffffffffffffffffffffffffffff1681565b600360009054906101000a900460ff1661057957600080fd5b3373ffffffffffffffffffffffffffffffffffffffff166108fc600660003373ffffffffffffffffffffffffffffffffffffffff1673ffffffffffffffffffffffffffffffffffffffff168152602001908152602001600020549081150290604051600060405180830381858888f193505050501580156105fe573d6000803e3d6000fd5b506000600660003373ffffffffffffffffffffffffffffffffffffffff1673ffffffffffffffffffffffffffffffffffffffff16815260200190815260200160002081905550565b6000819050919050565b7f4e487b7100000000000000000000000000000000000000000000000000000000600052601160045260246000fd5b600061068a82610646565b915061069583610646565b9250827fffffffffffffffffffffffffffffffffffffffffffffffffffffffffffffffff038211156106ca576106c9610650565b5b828201905092915050565b6106de81610646565b82525050565b60006040820190506106f960008301856106d5565b61070660208301846106d5565b9392505050565b600061071882610646565b915061072383610646565b9250817fffffffffffffffffffffffffffffffffffffffffffffffffffffffffffffffff048311821515161561075c5761075b610650565b5b828202905092915050565b600081519050919050565b600082825260208201905092915050565b60005b838110156107a1578082015181840152602081019050610786565b838111156107b0576000848401525b50505050565b6000601f19601f8301169050919050565b60006107d282610767565b6107dc8185610772565b93506107ec818560208601610783565b6107f5816107b6565b840191505092915050565b6000602082019050818103600083015261081a81846107c7565b905092915050565b60008115159050919050565b61083781610822565b82525050565b6000602082019050610852600083018461082e565b92915050565b600060208201905061086d60008301846106d5565b92915050565b600080fd5b600073ffffffffffffffffffffffffffffffffffffffff82169050919050565b60006108a382610878565b9050919050565b6108b381610898565b81146108be57600080fd5b50565b6000813590506108d0816108aa565b92915050565b6000602082840312156108ec576108eb610873565b5b60006108fa848285016108c1565b91505092915050565b6000819050919050565b61091681610903565b82525050565b6000602082019050610931600083018461090d565b92915050565b600061094282610878565b9050919050565b61095281610937565b82525050565b600060208201905061096d6000830184610949565b92915050565b7f4e487b7100000000000000000000000000000000000000000000000000000000600052602260045260246000fd5b600060028204905060018216806109ba57607f821691505b602082108114156109ce576109cd610973565b5b5091905056fea26469706673582212203ae7a7a57eee8fb5b804d8075bb4f49be5b43bc5d64e076be4eb557c267e97f964736f6c63430008090033a2646970667358221220fbbf2f2acba0a09dbf86ecb6e866fb48b413a5ae6e9879332dffecbf3a101bc764736f6c63430008090033",
  "linkReferences": {},
  "deployedLinkReferences": {}
}