{
  "_format": "hh-sol-artifact-1",
  "contractName": "CrowdFundFactory",
  "sourceName": "contracts/CrowdFundFactory.sol",
  "abi": [
    {
      "anonymous": false,
      "inputs": [
        {
          "indexed": true,
          "internalType": "address",
          "name": "_owner",
          "type": "address"
        }
      ],
      "name": "CrowdFundPublished",
      "type": "event"
    },
    {
      "inputs": [
        {
          "internalType": "address",
          "name": "",
          "type": "address"
        }
      ],
      "name": "contractOwners",
      "outputs": [
        {
          "internalType": "address",
          "name": "",
          "type": "address"
        }
      ],
      "stateMutability": "view",
      "type": "function"
    },
    {
      "inputs": [
        {
          "internalType": "string",
          "name": "_metadataURI",
          "type": "string"
        },
        {
          "internalType": "uint256",
          "name": "_goal",
          "type": "uint256"
        }
      ],
      "name": "createFundMeContract",
      "outputs": [],
      "stateMutability": "nonpayable",
      "type": "function"
    },
    {
      "inputs": [
        {
          "internalType": "uint256",
          "name": "",
          "type": "uint256"
        }
      ],
      "name": "fundMeArray",
      "outputs": [
        {
          "internalType": "address",
          "name": "",
          "type": "address"
        }
      ],
      "stateMutability": "view",
      "type": "function"
    },
    {
      "inputs": [],
      "name": "getFundMeContracts",
      "outputs": [
        {
          "internalType": "address[]",
          "name": "",
          "type": "address[]"
        }
      ],
      "stateMutability": "view",
      "type": "function"
    }
  ],
  "bytecode": "0x608060405234801561001057600080fd5b506111a2806100206000396000f3fe60806040523480156200001157600080fd5b5060043610620000525760003560e01c8063565727e514620000575780636d55b6e91462000077578063c05540a914620000ad578063fbee9e8314620000cf575b600080fd5b6200007560048036038101906200006f919062000530565b62000105565b005b6200009560048036038101906200008f9190620005fb565b6200026e565b604051620000a491906200063e565b60405180910390f35b620000b7620002a1565b604051620000c6919062000729565b60405180910390f35b620000ed6004803603810190620000e791906200074d565b62000331565b604051620000fc91906200063e565b60405180910390f35b6000338383604051620001189062000371565b620001269392919062000823565b604051809103906000f08015801562000143573d6000803e3d6000fd5b509050336000808373ffffffffffffffffffffffffffffffffffffffff1673ffffffffffffffffffffffffffffffffffffffff16815260200190815260200160002060006101000a81548173ffffffffffffffffffffffffffffffffffffffff021916908373ffffffffffffffffffffffffffffffffffffffff1602179055506001819080600181540180825580915050600190039060005260206000200160009091909190916101000a81548173ffffffffffffffffffffffffffffffffffffffff021916908373ffffffffffffffffffffffffffffffffffffffff1602179055503373ffffffffffffffffffffffffffffffffffffffff167f2ad28d0a4607ce7cfc2fd829e5a53a105a7cc02832c3a63da39e937d7bc002b960405160405180910390a2505050565b60006020528060005260406000206000915054906101000a900473ffffffffffffffffffffffffffffffffffffffff1681565b606060018054806020026020016040519081016040528092919081815260200182805480156200032757602002820191906000526020600020905b8160009054906101000a900473ffffffffffffffffffffffffffffffffffffffff1673ffffffffffffffffffffffffffffffffffffffff1681526020019060010190808311620002dc575b5050505050905090565b600181815481106200034257600080fd5b906000526020600020016000915054906101000a900473ffffffffffffffffffffffffffffffffffffffff1681565b610905806200086883390190565b6000604051905090565b600080fd5b600080fd5b600080fd5b600080fd5b6000601f19601f8301169050919050565b7f4e487b7100000000000000000000000000000000000000000000000000000000600052604160045260246000fd5b620003e8826200039d565b810181811067ffffffffffffffff821117156200040a5762000409620003ae565b5b80604052505050565b60006200041f6200037f565b90506200042d8282620003dd565b919050565b600067ffffffffffffffff82111562000450576200044f620003ae565b5b6200045b826200039d565b9050602081019050919050565b82818337600083830152505050565b60006200048e620004888462000432565b62000413565b905082815260208101848484011115620004ad57620004ac62000398565b5b620004ba84828562000468565b509392505050565b600082601f830112620004da57620004d962000393565b5b8135620004ec84826020860162000477565b91505092915050565b6000819050919050565b6200050a81620004f5565b81146200051657600080fd5b50565b6000813590506200052a81620004ff565b92915050565b600080604083850312156200054a576200054962000389565b5b600083013567ffffffffffffffff8111156200056b576200056a6200038e565b5b6200057985828601620004c2565b92505060206200058c8582860162000519565b9150509250929050565b600073ffffffffffffffffffffffffffffffffffffffff82169050919050565b6000620005c38262000596565b9050919050565b620005d581620005b6565b8114620005e157600080fd5b50565b600081359050620005f581620005ca565b92915050565b60006020828403121562000614576200061362000389565b5b60006200062484828501620005e4565b91505092915050565b6200063881620005b6565b82525050565b60006020820190506200065560008301846200062d565b92915050565b600081519050919050565b600082825260208201905092915050565b6000819050602082019050919050565b6200069281620005b6565b82525050565b6000620006a6838362000687565b60208301905092915050565b6000602082019050919050565b6000620006cc826200065b565b620006d8818562000666565b9350620006e58362000677565b8060005b838110156200071c57815162000700888262000698565b97506200070d83620006b2565b925050600181019050620006e9565b5085935050505092915050565b60006020820190508181036000830152620007458184620006bf565b905092915050565b60006020828403121562000766576200076562000389565b5b6000620007768482850162000519565b91505092915050565b600081519050919050565b600082825260208201905092915050565b60005b83811015620007bb5780820151818401526020810190506200079e565b83811115620007cb576000848401525b50505050565b6000620007de826200077f565b620007ea81856200078a565b9350620007fc8185602086016200079b565b62000807816200039d565b840191505092915050565b6200081d81620004f5565b82525050565b60006060820190506200083a60008301866200062d565b81810360208301526200084e8185620007d1565b90506200085f604083018462000812565b94935050505056fe60806040523480156200001157600080fd5b50604051620009053803806200090583398181016040528101906200003791906200038d565b826000806101000a81548173ffffffffffffffffffffffffffffffffffffffff021916908373ffffffffffffffffffffffffffffffffffffffff16021790555081600190805190602001906200008f929190620000a0565b50806002819055505050506200046d565b828054620000ae9062000437565b90600052602060002090601f016020900481019282620000d257600085556200011e565b82601f10620000ed57805160ff19168380011785556200011e565b828001600101855582156200011e579182015b828111156200011d57825182559160200191906001019062000100565b5b5090506200012d919062000131565b5090565b5b808211156200014c57600081600090555060010162000132565b5090565b6000604051905090565b600080fd5b600080fd5b600073ffffffffffffffffffffffffffffffffffffffff82169050919050565b6000620001918262000164565b9050919050565b620001a38162000184565b8114620001af57600080fd5b50565b600081519050620001c38162000198565b92915050565b600080fd5b600080fd5b6000601f19601f8301169050919050565b7f4e487b7100000000000000000000000000000000000000000000000000000000600052604160045260246000fd5b6200021e82620001d3565b810181811067ffffffffffffffff8211171562000240576200023f620001e4565b5b80604052505050565b60006200025562000150565b905062000263828262000213565b919050565b600067ffffffffffffffff821115620002865762000285620001e4565b5b6200029182620001d3565b9050602081019050919050565b60005b83811015620002be578082015181840152602081019050620002a1565b83811115620002ce576000848401525b50505050565b6000620002eb620002e58462000268565b62000249565b9050828152602081018484840111156200030a5762000309620001ce565b5b620003178482856200029e565b509392505050565b600082601f830112620003375762000336620001c9565b5b815162000349848260208601620002d4565b91505092915050565b6000819050919050565b620003678162000352565b81146200037357600080fd5b50565b60008151905062000387816200035c565b92915050565b600080600060608486031215620003a957620003a86200015a565b5b6000620003b986828701620001b2565b935050602084015167ffffffffffffffff811115620003dd57620003dc6200015f565b5b620003eb868287016200031f565b9250506040620003fe8682870162000376565b9150509250925092565b7f4e487b7100000000000000000000000000000000000000000000000000000000600052602260045260246000fd5b600060028204905060018216806200045057607f821691505b6020821081141562000467576200046662000408565b5b50919050565b610488806200047d6000396000f3fe6080604052600436106100385760003560e01c806303ee438c146100e857806340193883146101135780638da5cb5b1461013e576100e3565b366100e35734600360003373ffffffffffffffffffffffffffffffffffffffff1673ffffffffffffffffffffffffffffffffffffffff168152602001908152602001600020600082825461008c919061025a565b925050819055503373ffffffffffffffffffffffffffffffffffffffff167fda8220a878ff7a89474ccffdaa31ea1ed1ffbb0207d5051afccc4fbaf81f9bcd346040516100d991906102bf565b60405180910390a2005b600080fd5b3480156100f457600080fd5b506100fd610169565b60405161010a9190610373565b60405180910390f35b34801561011f57600080fd5b506101286101f7565b60405161013591906102bf565b60405180910390f35b34801561014a57600080fd5b506101536101fd565b60405161016091906103d6565b60405180910390f35b6001805461017690610420565b80601f01602080910402602001604051908101604052809291908181526020018280546101a290610420565b80156101ef5780601f106101c4576101008083540402835291602001916101ef565b820191906000526020600020905b8154815290600101906020018083116101d257829003601f168201915b505050505081565b60025481565b60008054906101000a900473ffffffffffffffffffffffffffffffffffffffff1681565b6000819050919050565b7f4e487b7100000000000000000000000000000000000000000000000000000000600052601160045260246000fd5b600061026582610221565b915061027083610221565b9250827fffffffffffffffffffffffffffffffffffffffffffffffffffffffffffffffff038211156102a5576102a461022b565b5b828201905092915050565b6102b981610221565b82525050565b60006020820190506102d460008301846102b0565b92915050565b600081519050919050565b600082825260208201905092915050565b60005b838110156103145780820151818401526020810190506102f9565b83811115610323576000848401525b50505050565b6000601f19601f8301169050919050565b6000610345826102da565b61034f81856102e5565b935061035f8185602086016102f6565b61036881610329565b840191505092915050565b6000602082019050818103600083015261038d818461033a565b905092915050565b600073ffffffffffffffffffffffffffffffffffffffff82169050919050565b60006103c082610395565b9050919050565b6103d0816103b5565b82525050565b60006020820190506103eb60008301846103c7565b92915050565b7f4e487b7100000000000000000000000000000000000000000000000000000000600052602260045260246000fd5b6000600282049050600182168061043857607f821691505b6020821081141561044c5761044b6103f1565b5b5091905056fea26469706673582212202d3b5e94471e27eec1c35842c0d8fbdd00d5d98836048e4735879949d4aaa9d864736f6c63430008090033a2646970667358221220420e451d8cd0124c869a3765e7a2feec175c94ddc93fe5ab2548174728c130ae64736f6c63430008090033",
  "linkReferences": {},
  "deployedLinkReferences": {}
}