{
  "_format": "hh-sol-artifact-1",
  "contractName": "CrowdFundFactory",
  "sourceName": "contracts/CrowdFundFactory.sol",
  "abi": [
    {
      "anonymous": false,
      "inputs": [
        {
          "indexed": true,
          "internalType": "address",
          "name": "_owner",
          "type": "address"
        },
        {
          "indexed": false,
          "internalType": "address",
          "name": "_fundMe",
          "type": "address"
        },
        {
          "indexed": true,
          "internalType": "bytes32",
          "name": "_tag",
          "type": "bytes32"
        }
      ],
      "name": "CrowdFundPublished",
      "type": "event"
    },
    {
      "inputs": [
        {
          "internalType": "address",
          "name": "",
          "type": "address"
        },
        {
          "internalType": "uint256",
          "name": "",
          "type": "uint256"
        }
      ],
      "name": "contractOwners",
      "outputs": [
        {
          "internalType": "address",
          "name": "",
          "type": "address"
        }
      ],
      "stateMutability": "view",
      "type": "function"
    },
    {
      "inputs": [
        {
          "internalType": "string",
          "name": "_metadataURI",
          "type": "string"
        },
        {
          "internalType": "uint256",
          "name": "_goal",
          "type": "uint256"
        },
        {
          "internalType": "bytes32",
          "name": "_tag",
          "type": "bytes32"
        }
      ],
      "name": "createFundMeContract",
      "outputs": [],
      "stateMutability": "nonpayable",
      "type": "function"
    },
    {
      "inputs": [
        {
          "internalType": "uint256",
          "name": "",
          "type": "uint256"
        }
      ],
      "name": "fundMeArray",
      "outputs": [
        {
          "internalType": "address",
          "name": "",
          "type": "address"
        }
      ],
      "stateMutability": "view",
      "type": "function"
    },
    {
      "inputs": [],
      "name": "getFundMeContracts",
      "outputs": [
        {
          "internalType": "address[]",
          "name": "",
          "type": "address[]"
        }
      ],
      "stateMutability": "view",
      "type": "function"
    },
    {
      "inputs": [
        {
          "internalType": "address",
          "name": "_owner",
          "type": "address"
        }
      ],
      "name": "getUserContracts",
      "outputs": [
        {
          "internalType": "address[]",
          "name": "",
          "type": "address[]"
        }
      ],
      "stateMutability": "view",
      "type": "function"
    }
  ],
  "bytecode": "0x608060405234801561001057600080fd5b50611939806100206000396000f3fe60806040523480156200001157600080fd5b50600436106200005e5760003560e01c806334c925f01462000063578063444bc36e1462000099578063c05540a914620000b9578063d3a6423914620000db578063fbee9e831462000111575b600080fd5b6200008160048036038101906200007b919062000557565b62000147565b60405162000090919062000657565b60405180910390f35b620000b76004803603810190620000b1919062000853565b62000215565b005b620000c3620003b1565b604051620000d2919062000657565b60405180910390f35b620000f96004803603810190620000f39190620008ce565b62000441565b60405162000108919062000926565b60405180910390f35b6200012f600480360381019062000129919062000943565b62000490565b6040516200013e919062000926565b60405180910390f35b60606000808373ffffffffffffffffffffffffffffffffffffffff1673ffffffffffffffffffffffffffffffffffffffff1681526020019081526020016000208054806020026020016040519081016040528092919081815260200182805480156200020957602002820191906000526020600020905b8160009054906101000a900473ffffffffffffffffffffffffffffffffffffffff1673ffffffffffffffffffffffffffffffffffffffff1681526020019060010190808311620001be575b50505050509050919050565b6000338484846040516200022990620004d0565b62000238949392919062000a2a565b604051809103906000f08015801562000255573d6000803e3d6000fd5b5090506000808273ffffffffffffffffffffffffffffffffffffffff1673ffffffffffffffffffffffffffffffffffffffff168152602001908152602001600020819080600181540180825580915050600190039060005260206000200160009091909190916101000a81548173ffffffffffffffffffffffffffffffffffffffff021916908373ffffffffffffffffffffffffffffffffffffffff1602179055506001819080600181540180825580915050600190039060005260206000200160009091909190916101000a81548173ffffffffffffffffffffffffffffffffffffffff021916908373ffffffffffffffffffffffffffffffffffffffff160217905550813373ffffffffffffffffffffffffffffffffffffffff167fbdaa931a225e4bf8095c1349a895e0d425491a640c026d602078d7e3a40ddd1b83604051620003a3919062000926565b60405180910390a350505050565b606060018054806020026020016040519081016040528092919081815260200182805480156200043757602002820191906000526020600020905b8160009054906101000a900473ffffffffffffffffffffffffffffffffffffffff1673ffffffffffffffffffffffffffffffffffffffff1681526020019060010190808311620003ec575b5050505050905090565b600060205281600052604060002081815481106200045e57600080fd5b906000526020600020016000915091509054906101000a900473ffffffffffffffffffffffffffffffffffffffff1681565b60018181548110620004a157600080fd5b906000526020600020016000915054906101000a900473ffffffffffffffffffffffffffffffffffffffff1681565b610e858062000a7f83390190565b6000604051905090565b600080fd5b600080fd5b600073ffffffffffffffffffffffffffffffffffffffff82169050919050565b60006200051f82620004f2565b9050919050565b620005318162000512565b81146200053d57600080fd5b50565b600081359050620005518162000526565b92915050565b60006020828403121562000570576200056f620004e8565b5b6000620005808482850162000540565b91505092915050565b600081519050919050565b600082825260208201905092915050565b6000819050602082019050919050565b620005c08162000512565b82525050565b6000620005d48383620005b5565b60208301905092915050565b6000602082019050919050565b6000620005fa8262000589565b62000606818562000594565b93506200061383620005a5565b8060005b838110156200064a5781516200062e8882620005c6565b97506200063b83620005e0565b92505060018101905062000617565b5085935050505092915050565b60006020820190508181036000830152620006738184620005ed565b905092915050565b600080fd5b600080fd5b6000601f19601f8301169050919050565b7f4e487b7100000000000000000000000000000000000000000000000000000000600052604160045260246000fd5b620006d08262000685565b810181811067ffffffffffffffff82111715620006f257620006f162000696565b5b80604052505050565b600062000707620004de565b9050620007158282620006c5565b919050565b600067ffffffffffffffff82111562000738576200073762000696565b5b620007438262000685565b9050602081019050919050565b82818337600083830152505050565b60006200077662000770846200071a565b620006fb565b90508281526020810184848401111562000795576200079462000680565b5b620007a284828562000750565b509392505050565b600082601f830112620007c257620007c16200067b565b5b8135620007d48482602086016200075f565b91505092915050565b6000819050919050565b620007f281620007dd565b8114620007fe57600080fd5b50565b6000813590506200081281620007e7565b92915050565b6000819050919050565b6200082d8162000818565b81146200083957600080fd5b50565b6000813590506200084d8162000822565b92915050565b6000806000606084860312156200086f576200086e620004e8565b5b600084013567ffffffffffffffff81111562000890576200088f620004ed565b5b6200089e86828701620007aa565b9350506020620008b18682870162000801565b9250506040620008c4868287016200083c565b9150509250925092565b60008060408385031215620008e857620008e7620004e8565b5b6000620008f88582860162000540565b92505060206200090b8582860162000801565b9150509250929050565b620009208162000512565b82525050565b60006020820190506200093d600083018462000915565b92915050565b6000602082840312156200095c576200095b620004e8565b5b60006200096c8482850162000801565b91505092915050565b600081519050919050565b600082825260208201905092915050565b60005b83811015620009b157808201518184015260208101905062000994565b83811115620009c1576000848401525b50505050565b6000620009d48262000975565b620009e0818562000980565b9350620009f281856020860162000991565b620009fd8162000685565b840191505092915050565b62000a1381620007dd565b82525050565b62000a248162000818565b82525050565b600060808201905062000a41600083018762000915565b818103602083015262000a558186620009c7565b905062000a66604083018562000a08565b62000a75606083018462000a19565b9594505050505056fe60806040526001600360006101000a81548160ff0219169083151502179055506000600360016101000a81548160ff0219169083151502179055503480156200004757600080fd5b5060405162000e8538038062000e8583398181016040528101906200006d919062000406565b836000806101000a81548173ffffffffffffffffffffffffffffffffffffffff021916908373ffffffffffffffffffffffffffffffffffffffff1602179055508260019080519060200190620000c5929190620000de565b50816002819055508060048190555050505050620004fc565b828054620000ec90620004c6565b90600052602060002090601f0160209004810192826200011057600085556200015c565b82601f106200012b57805160ff19168380011785556200015c565b828001600101855582156200015c579182015b828111156200015b5782518255916020019190600101906200013e565b5b5090506200016b91906200016f565b5090565b5b808211156200018a57600081600090555060010162000170565b5090565b6000604051905090565b600080fd5b600080fd5b600073ffffffffffffffffffffffffffffffffffffffff82169050919050565b6000620001cf82620001a2565b9050919050565b620001e181620001c2565b8114620001ed57600080fd5b50565b6000815190506200020181620001d6565b92915050565b600080fd5b600080fd5b6000601f19601f8301169050919050565b7f4e487b7100000000000000000000000000000000000000000000000000000000600052604160045260246000fd5b6200025c8262000211565b810181811067ffffffffffffffff821117156200027e576200027d62000222565b5b80604052505050565b6000620002936200018e565b9050620002a1828262000251565b919050565b600067ffffffffffffffff821115620002c457620002c362000222565b5b620002cf8262000211565b9050602081019050919050565b60005b83811015620002fc578082015181840152602081019050620002df565b838111156200030c576000848401525b50505050565b6000620003296200032384620002a6565b62000287565b9050828152602081018484840111156200034857620003476200020c565b5b62000355848285620002dc565b509392505050565b600082601f83011262000375576200037462000207565b5b81516200038784826020860162000312565b91505092915050565b6000819050919050565b620003a58162000390565b8114620003b157600080fd5b50565b600081519050620003c5816200039a565b92915050565b6000819050919050565b620003e081620003cb565b8114620003ec57600080fd5b50565b6000815190506200040081620003d5565b92915050565b6000806000806080858703121562000423576200042262000198565b5b60006200043387828801620001f0565b945050602085015167ffffffffffffffff8111156200045757620004566200019d565b5b62000465878288016200035d565b93505060406200047887828801620003b4565b92505060606200048b87828801620003ef565b91505092959194509250565b7f4e487b7100000000000000000000000000000000000000000000000000000000600052602260045260246000fd5b60006002820490506001821680620004df57607f821691505b60208210811415620004f657620004f562000497565b5b50919050565b610979806200050c6000396000f3fe6080604052600436106100955760003560e01c806351f910661161005957806351f91066146102685780637d3d6522146102935780638387c6e1146102be5780638da5cb5b146102fb578063e914fa1214610326576101ad565b806303ee438c146101b257806322f3e2d4146101dd5780632abfab4d146102085780633ccfd60b14610233578063401938831461023d576101ad565b366101ad57600360009054906101000a900460ff166100b357600080fd5b34600660003373ffffffffffffffffffffffffffffffffffffffff1673ffffffffffffffffffffffffffffffffffffffff168152602001908152602001600020600082825461010291906105ee565b925050819055503373ffffffffffffffffffffffffffffffffffffffff167fd5321498ebef1d048889992d8457d0f50576d300db1fd93488480c1f57a656013447604051610151929190610653565b60405180910390a260016005600082825461016c91906105ee565b92505081905550670de0b6b3a7640000600254610189919061067c565b47106101ab576001600360016101000a81548160ff0219169083151502179055505b005b600080fd5b3480156101be57600080fd5b506101c7610330565b6040516101d4919061076f565b60405180910390f35b3480156101e957600080fd5b506101f26103be565b6040516101ff91906107ac565b60405180910390f35b34801561021457600080fd5b5061021d6103d1565b60405161022a91906107c7565b60405180910390f35b61023b6103d7565b005b34801561024957600080fd5b50610252610474565b60405161025f91906107c7565b60405180910390f35b34801561027457600080fd5b5061027d61047a565b60405161028a91906107fb565b60405180910390f35b34801561029f57600080fd5b506102a8610480565b6040516102b591906107ac565b60405180910390f35b3480156102ca57600080fd5b506102e560048036038101906102e09190610879565b610493565b6040516102f291906107c7565b60405180910390f35b34801561030757600080fd5b506103106104ab565b60405161031d91906108c7565b60405180910390f35b61032e6104cf565b005b6001805461033d90610911565b80601f016020809104026020016040519081016040528092919081815260200182805461036990610911565b80156103b65780601f1061038b576101008083540402835291602001916103b6565b820191906000526020600020905b81548152906001019060200180831161039957829003601f168201915b505050505081565b600360009054906101000a900460ff1681565b60055481565b600360009054906101000a900460ff166103f057600080fd5b60008054906101000a900473ffffffffffffffffffffffffffffffffffffffff1673ffffffffffffffffffffffffffffffffffffffff166108fc479081150290604051600060405180830381858888f19350505050158015610456573d6000803e3d6000fd5b506000600360006101000a81548160ff021916908315150217905550565b60025481565b60045481565b600360019054906101000a900460ff1681565b60066020528060005260406000206000915090505481565b60008054906101000a900473ffffffffffffffffffffffffffffffffffffffff1681565b600360009054906101000a900460ff166104e857600080fd5b3373ffffffffffffffffffffffffffffffffffffffff166108fc600660003373ffffffffffffffffffffffffffffffffffffffff1673ffffffffffffffffffffffffffffffffffffffff168152602001908152602001600020549081150290604051600060405180830381858888f1935050505015801561056d573d6000803e3d6000fd5b506000600660003373ffffffffffffffffffffffffffffffffffffffff1673ffffffffffffffffffffffffffffffffffffffff16815260200190815260200160002081905550565b6000819050919050565b7f4e487b7100000000000000000000000000000000000000000000000000000000600052601160045260246000fd5b60006105f9826105b5565b9150610604836105b5565b9250827fffffffffffffffffffffffffffffffffffffffffffffffffffffffffffffffff03821115610639576106386105bf565b5b828201905092915050565b61064d816105b5565b82525050565b60006040820190506106686000830185610644565b6106756020830184610644565b9392505050565b6000610687826105b5565b9150610692836105b5565b9250817fffffffffffffffffffffffffffffffffffffffffffffffffffffffffffffffff04831182151516156106cb576106ca6105bf565b5b828202905092915050565b600081519050919050565b600082825260208201905092915050565b60005b838110156107105780820151818401526020810190506106f5565b8381111561071f576000848401525b50505050565b6000601f19601f8301169050919050565b6000610741826106d6565b61074b81856106e1565b935061075b8185602086016106f2565b61076481610725565b840191505092915050565b600060208201905081810360008301526107898184610736565b905092915050565b60008115159050919050565b6107a681610791565b82525050565b60006020820190506107c1600083018461079d565b92915050565b60006020820190506107dc6000830184610644565b92915050565b6000819050919050565b6107f5816107e2565b82525050565b600060208201905061081060008301846107ec565b92915050565b600080fd5b600073ffffffffffffffffffffffffffffffffffffffff82169050919050565b60006108468261081b565b9050919050565b6108568161083b565b811461086157600080fd5b50565b6000813590506108738161084d565b92915050565b60006020828403121561088f5761088e610816565b5b600061089d84828501610864565b91505092915050565b60006108b18261081b565b9050919050565b6108c1816108a6565b82525050565b60006020820190506108dc60008301846108b8565b92915050565b7f4e487b7100000000000000000000000000000000000000000000000000000000600052602260045260246000fd5b6000600282049050600182168061092957607f821691505b6020821081141561093d5761093c6108e2565b5b5091905056fea2646970667358221220fd19d143f58649762beec85d9fa99e24413b87d6946affa228a7cc9f0bc5f14664736f6c63430008090033a2646970667358221220a9c1acc1800e8fc07ea4bb29dcd4c8189deacf3132e3a977bd6108955af1b03264736f6c63430008090033",
  "linkReferences": {},
  "deployedLinkReferences": {}
}